{
  "address": "0xaCD70AdfeEe619ACa7354e9c89C6a86968d11078",
  "abi": [
    {
      "inputs": [
        {
          "internalType": "address",
          "name": "initialOwner",
          "type": "address"
        },
        {
          "internalType": "address",
          "name": "_signer",
          "type": "address"
        }
      ],
      "stateMutability": "nonpayable",
      "type": "constructor"
    },
    {
      "inputs": [],
      "name": "ArrayLengthMismatch",
      "type": "error"
    },
    {
      "inputs": [],
      "name": "InvalidShortString",
      "type": "error"
    },
    {
      "inputs": [],
      "name": "OnlyPortalOwner",
      "type": "error"
    },
    {
      "inputs": [],
      "name": "SignerNotAuthorized",
      "type": "error"
    },
    {
      "inputs": [
        {
          "internalType": "string",
          "name": "str",
          "type": "string"
        }
      ],
      "name": "StringTooLong",
      "type": "error"
    },
    {
      "anonymous": false,
      "inputs": [],
      "name": "EIP712DomainChanged",
      "type": "event"
    },
    {
      "anonymous": false,
      "inputs": [
        {
          "indexed": true,
          "internalType": "address",
          "name": "previousOwner",
          "type": "address"
        },
        {
          "indexed": true,
          "internalType": "address",
          "name": "newOwner",
          "type": "address"
        }
      ],
      "name": "OwnershipTransferred",
      "type": "event"
    },
    {
      "anonymous": false,
      "inputs": [
        {
          "indexed": false,
          "internalType": "address",
          "name": "signer",
          "type": "address"
        }
      ],
      "name": "SignerAuthorized",
      "type": "event"
    },
    {
      "inputs": [],
      "name": "NAME",
      "outputs": [
        {
          "internalType": "string",
          "name": "",
          "type": "string"
        }
      ],
      "stateMutability": "view",
      "type": "function"
    },
    {
      "inputs": [],
      "name": "VERSION",
      "outputs": [
        {
          "internalType": "string",
          "name": "",
          "type": "string"
        }
      ],
      "stateMutability": "view",
      "type": "function"
    },
    {
      "inputs": [],
      "name": "eip712Domain",
      "outputs": [
        {
          "internalType": "bytes1",
          "name": "fields",
          "type": "bytes1"
        },
        {
          "internalType": "string",
          "name": "name",
          "type": "string"
        },
        {
          "internalType": "string",
          "name": "version",
          "type": "string"
        },
        {
          "internalType": "uint256",
          "name": "chainId",
          "type": "uint256"
        },
        {
          "internalType": "address",
          "name": "verifyingContract",
          "type": "address"
        },
        {
          "internalType": "bytes32",
          "name": "salt",
          "type": "bytes32"
        },
        {
          "internalType": "uint256[]",
          "name": "extensions",
          "type": "uint256[]"
        }
      ],
      "stateMutability": "view",
      "type": "function"
    },
    {
      "inputs": [],
      "name": "getSigner",
      "outputs": [
        {
          "internalType": "address",
          "name": "",
          "type": "address"
        }
      ],
      "stateMutability": "view",
      "type": "function"
    },
    {
      "inputs": [],
      "name": "owner",
      "outputs": [
        {
          "internalType": "address",
          "name": "",
          "type": "address"
        }
      ],
      "stateMutability": "view",
      "type": "function"
    },
    {
      "inputs": [],
      "name": "renounceOwnership",
      "outputs": [],
      "stateMutability": "nonpayable",
      "type": "function"
    },
    {
      "inputs": [
        {
          "components": [
            {
              "internalType": "bytes32",
              "name": "schemaId",
              "type": "bytes32"
            },
            {
              "internalType": "uint64",
              "name": "expirationDate",
              "type": "uint64"
            },
            {
              "internalType": "bytes",
              "name": "subject",
              "type": "bytes"
            },
            {
              "internalType": "bytes",
              "name": "attestationData",
              "type": "bytes"
            }
          ],
          "internalType": "struct AttestationPayload",
          "name": "_attestationPayload",
          "type": "tuple"
        },
        {
          "internalType": "bytes",
          "name": "_validationPayload",
          "type": "bytes"
        },
        {
          "internalType": "address",
          "name": "_txSender",
          "type": "address"
        },
        {
          "internalType": "uint256",
          "name": "",
          "type": "uint256"
        }
      ],
      "name": "run",
      "outputs": [],
      "stateMutability": "view",
      "type": "function"
    },
    {
      "inputs": [
        {
          "internalType": "address",
          "name": "_signer",
          "type": "address"
        }
      ],
      "name": "setAuthorizedSigners",
      "outputs": [],
      "stateMutability": "nonpayable",
      "type": "function"
    },
    {
      "inputs": [
        {
          "internalType": "bytes4",
          "name": "interfaceID",
          "type": "bytes4"
        }
      ],
      "name": "supportsInterface",
      "outputs": [
        {
          "internalType": "bool",
          "name": "",
          "type": "bool"
        }
      ],
      "stateMutability": "view",
      "type": "function"
    },
    {
      "inputs": [
        {
          "internalType": "address",
          "name": "newOwner",
          "type": "address"
        }
      ],
      "name": "transferOwnership",
      "outputs": [],
      "stateMutability": "nonpayable",
      "type": "function"
    }
  ],
  "transactionHash": "0x3db16ac027d6c208a3dc88df157e11c0c0058cb77871ff48aa33752e2dc5d1bf",
  "args": [
    "0x4803003e06Fe7Bc150cC8CB21D12750A1A1bA135",
    "0x381c031bAA5995D0Cc52386508050Ac947780815"
  ],
  "numDeployments": 2,
  "solcInputHash": "1b500af459c4272cf599f0e1844a2b2e",
  "bytecode": "0x6101606040523480156200001257600080fd5b506040516200131c3803806200131c833981016040819052620000359162000301565b604080518082018252601981527f5275627973636f72655f5369676e436865636b4d6f64756c650000000000000060208083019190915282518084019093526005835264302e302e3160d81b90830152906200009382600062000216565b61012052620000a481600162000216565b61014052815160208084019190912060e052815190820120610100524660a0526200013260e05161010051604080517f8b73c3c69bb8fe3d512ecc4cf759cc79239f7b179b0ffacaa9a75d522b39400f60208201529081019290925260608201524660808201523060a082015260009060c00160405160208183030381529060405280519060200120905090565b60805250503060c05262000146336200024f565b6001600160a01b038216620001975760405162461bcd60e51b81526020600482015260126024820152715a65726f206164647265737320636865636b60701b60448201526064015b60405180910390fd5b6001600160a01b038116620001e45760405162461bcd60e51b81526020600482015260126024820152715a65726f206164647265737320636865636b60701b60448201526064016200018e565b620001ef826200024f565b600380546001600160a01b0319166001600160a01b0392909216919091179055506200051f565b600060208351101562000236576200022e83620002a1565b905062000249565b81620002438482620003de565b5060ff90505b92915050565b600280546001600160a01b038381166001600160a01b0319831681179093556040519116919082907f8be0079c531659141344cd1fd0a4f28419497f9722a3daafe3b4186f6b6457e090600090a35050565b600080829050601f81511115620002cf578260405163305a27a960e01b81526004016200018e9190620004aa565b8051620002dc82620004fa565b179392505050565b80516001600160a01b0381168114620002fc57600080fd5b919050565b600080604083850312156200031557600080fd5b6200032083620002e4565b91506200033060208401620002e4565b90509250929050565b634e487b7160e01b600052604160045260246000fd5b600181811c908216806200036457607f821691505b6020821081036200038557634e487b7160e01b600052602260045260246000fd5b50919050565b601f821115620003d957600081815260208120601f850160051c81016020861015620003b45750805b601f850160051c820191505b81811015620003d557828155600101620003c0565b5050505b505050565b81516001600160401b03811115620003fa57620003fa62000339565b62000412816200040b84546200034f565b846200038b565b602080601f8311600181146200044a5760008415620004315750858301515b600019600386901b1c1916600185901b178555620003d5565b600085815260208120601f198616915b828110156200047b578886015182559484019460019091019084016200045a565b50858210156200049a5787850151600019600388901b60f8161c191681555b5050505050600190811b01905550565b600060208083528351808285015260005b81811015620004d957858101830151858201604001528201620004bb565b506000604082860101526040601f19601f8301168501019250505092915050565b80516020808301519190811015620003855760001960209190910360031b1b16919050565b60805160a05160c05160e051610100516101205161014051610da26200057a60003960006103a90152600061037f015260006106f9015260006106d10152600061062c01526000610656015260006106800152610da26000f3fe608060405234801561001057600080fd5b506004361061009e5760003560e01c806384b0196e1161006657806384b0196e146101205780638da5cb5b1461013b578063a3f4df7e1461014c578063f2fde38b14610195578063ffa1ad74146101a857600080fd5b806301ffc9a7146100a3578063378144b0146100cb578063432c1625146100e0578063715018a6146100f35780637ac3c02f146100fb575b600080fd5b6100b66100b1366004610a09565b6101cc565b60405190151581526020015b60405180910390f35b6100de6100d9366004610b22565b610203565b005b6100de6100ee366004610c12565b610301565b6100de61035d565b6003546001600160a01b03165b6040516001600160a01b0390911681526020016100c2565b610128610371565b6040516100c29796959493929190610c73565b6002546001600160a01b0316610108565b6101886040518060400160405280601981526020017f5275627973636f72655f5369676e436865636b4d6f64756c650000000000000081525081565b6040516100c29190610d09565b6100de6101a3366004610c12565b6103f9565b61018860405180604001604052806005815260200164302e302e3160d81b81525081565b60006001600160e01b0319821663367e8d1760e01b14806101fd57506001600160e01b031982166301ffc9a760e01b145b92915050565b60006102c07ff0e9a64d3fffa41ed2083556103227aee77b907d432c6ac0d1263fc416693f63866000015187602001518660405160200161025391906001600160a01b0391909116815260200190565b60408051601f1981840301815282825280516020918201206060808e0151805190840120928501979097529183019490945267ffffffffffffffff90921693810193909352608083015260a082015260c00160405160208183030381529060405280519060200120610477565b90506102cc81856104a4565b6003546001600160a01b039081169116146102fa576040516311c3376b60e11b815260040160405180910390fd5b5050505050565b6103096104c8565b600380546001600160a01b0319166001600160a01b0383169081179091556040519081527fc2f263c027e5d0d20cb69b6068f2144a6ce1b7d1369fdc782788faae4bc63db29060200160405180910390a150565b6103656104c8565b61036f6000610522565b565b6000606080828080836103a47f000000000000000000000000000000000000000000000000000000000000000083610574565b6103cf7f00000000000000000000000000000000000000000000000000000000000000006001610574565b60408051600080825260208201909252600f60f81b9b939a50919850469750309650945092509050565b6104016104c8565b6001600160a01b03811661046b5760405162461bcd60e51b815260206004820152602660248201527f4f776e61626c653a206e6577206f776e657220697320746865207a65726f206160448201526564647265737360d01b60648201526084015b60405180910390fd5b61047481610522565b50565b60006101fd61048461061f565b8360405161190160f01b8152600281019290925260228201526042902090565b60008060006104b3858561074f565b915091506104c081610794565b509392505050565b6002546001600160a01b0316331461036f5760405162461bcd60e51b815260206004820181905260248201527f4f776e61626c653a2063616c6c6572206973206e6f7420746865206f776e65726044820152606401610462565b600280546001600160a01b038381166001600160a01b0319831681179093556040519116919082907f8be0079c531659141344cd1fd0a4f28419497f9722a3daafe3b4186f6b6457e090600090a35050565b606060ff831461058e57610587836108de565b90506101fd565b81805461059a90610d1c565b80601f01602080910402602001604051908101604052809291908181526020018280546105c690610d1c565b80156106135780601f106105e857610100808354040283529160200191610613565b820191906000526020600020905b8154815290600101906020018083116105f657829003601f168201915b505050505090506101fd565b6000306001600160a01b037f00000000000000000000000000000000000000000000000000000000000000001614801561067857507f000000000000000000000000000000000000000000000000000000000000000046145b156106a257507f000000000000000000000000000000000000000000000000000000000000000090565b61074a604080517f8b73c3c69bb8fe3d512ecc4cf759cc79239f7b179b0ffacaa9a75d522b39400f60208201527f0000000000000000000000000000000000000000000000000000000000000000918101919091527f000000000000000000000000000000000000000000000000000000000000000060608201524660808201523060a082015260009060c00160405160208183030381529060405280519060200120905090565b905090565b60008082516041036107855760208301516040840151606085015160001a6107798782858561091d565b9450945050505061078d565b506000905060025b9250929050565b60008160048111156107a8576107a8610d56565b036107b05750565b60018160048111156107c4576107c4610d56565b036108115760405162461bcd60e51b815260206004820152601860248201527f45434453413a20696e76616c6964207369676e617475726500000000000000006044820152606401610462565b600281600481111561082557610825610d56565b036108725760405162461bcd60e51b815260206004820152601f60248201527f45434453413a20696e76616c6964207369676e6174757265206c656e677468006044820152606401610462565b600381600481111561088657610886610d56565b036104745760405162461bcd60e51b815260206004820152602260248201527f45434453413a20696e76616c6964207369676e6174757265202773272076616c604482015261756560f01b6064820152608401610462565b606060006108eb836109e1565b604080516020808252818301909252919250600091906020820181803683375050509182525060208101929092525090565b6000807f7fffffffffffffffffffffffffffffff5d576e7357a4501ddfe92f46681b20a083111561095457506000905060036109d8565b6040805160008082526020820180845289905260ff881692820192909252606081018690526080810185905260019060a0016020604051602081039080840390855afa1580156109a8573d6000803e3d6000fd5b5050604051601f1901519150506001600160a01b0381166109d1576000600192509250506109d8565b9150600090505b94509492505050565b600060ff8216601f8111156101fd57604051632cd44ac360e21b815260040160405180910390fd5b600060208284031215610a1b57600080fd5b81356001600160e01b031981168114610a3357600080fd5b9392505050565b634e487b7160e01b600052604160045260246000fd5b6040516080810167ffffffffffffffff81118282101715610a7357610a73610a3a565b60405290565b600082601f830112610a8a57600080fd5b813567ffffffffffffffff80821115610aa557610aa5610a3a565b604051601f8301601f19908116603f01168101908282118183101715610acd57610acd610a3a565b81604052838152866020858801011115610ae657600080fd5b836020870160208301376000602085830101528094505050505092915050565b80356001600160a01b0381168114610b1d57600080fd5b919050565b60008060008060808587031215610b3857600080fd5b843567ffffffffffffffff80821115610b5057600080fd5b9086019060808289031215610b6457600080fd5b610b6c610a50565b8235815260208301358281168114610b8357600080fd5b6020820152604083013582811115610b9a57600080fd5b610ba68a828601610a79565b604083015250606083013582811115610bbe57600080fd5b610bca8a828601610a79565b60608301525095506020870135915080821115610be657600080fd5b50610bf387828801610a79565b935050610c0260408601610b06565b9396929550929360600135925050565b600060208284031215610c2457600080fd5b610a3382610b06565b6000815180845260005b81811015610c5357602081850181015186830182015201610c37565b506000602082860101526020601f19601f83011685010191505092915050565b60ff60f81b881681526000602060e081840152610c9360e084018a610c2d565b8381036040850152610ca5818a610c2d565b606085018990526001600160a01b038816608086015260a0850187905284810360c0860152855180825283870192509083019060005b81811015610cf757835183529284019291840191600101610cdb565b50909c9b505050505050505050505050565b602081526000610a336020830184610c2d565b600181811c90821680610d3057607f821691505b602082108103610d5057634e487b7160e01b600052602260045260246000fd5b50919050565b634e487b7160e01b600052602160045260246000fdfea2646970667358221220d943e706ed330c01f8962e116fca59b27e243ae6a00ca755f2930ecf5c95621364736f6c63430008130033",
  "devdoc": {
    "events": {
      "EIP712DomainChanged()": {
        "details": "MAY be emitted to signal that the domain could have changed."
      }
    },
    "kind": "dev",
    "methods": {
      "eip712Domain()": {
        "details": "See {EIP-5267}. _Available since v4.9._"
      },
      "owner()": {
        "details": "Returns the address of the current owner."
      },
      "renounceOwnership()": {
        "details": "Leaves the contract without owner. It will not be possible to call `onlyOwner` functions. Can only be called by the current owner. NOTE: Renouncing ownership will leave the contract without an owner, thereby disabling any functionality that is only available to the owner."
      },
      "run((bytes32,uint64,bytes,bytes),bytes,address,uint256)": {
        "params": {
          "_attestationPayload": "The Payload of the attestation",
          "_validationPayload": "The validation payload required for the module"
        }
      },
      "setAuthorizedSigners(address)": {
        "params": {
          "_signer": "The signers to be set"
        }
      },
      "supportsInterface(bytes4)": {
        "params": {
          "interfaceID": "The ID of the interface to check."
        },
        "returns": {
          "_0": "A boolean indicating interface support."
        }
      },
      "transferOwnership(address)": {
        "details": "Transfers ownership of the contract to a new account (`newOwner`). Can only be called by the current owner."
      }
    },
    "title": "Rubyscore Signature Check Module",
    "version": 1
  },
  "userdoc": {
    "errors": {
      "ArrayLengthMismatch()": [
        {
          "notice": "Error thrown when an array length mismatch occurs"
        }
      ],
      "OnlyPortalOwner()": [
        {
          "notice": "Error thrown when someone else than the portal's owner is trying to revoke"
        }
      ],
      "SignerNotAuthorized()": [
        {
          "notice": "Error thrown when a signer is not authorized by the module"
        }
      ]
    },
    "events": {
      "SignerAuthorized(address)": {
        "notice": "Event emitted when the authorized signers are set"
      }
    },
    "kind": "user",
    "methods": {
      "constructor": {
        "notice": "Contract constructor sets the portal registry"
      },
      "run((bytes32,uint64,bytes,bytes),bytes,address,uint256)": {
        "notice": "The main method for the module, running the check"
      },
      "setAuthorizedSigners(address)": {
        "notice": "Set the accepted status of schemaIds"
      },
      "supportsInterface(bytes4)": {
        "notice": "Checks if the contract implements the Module interface."
      }
    },
    "notice": "This module can be used by portal to         require a signature from an authorized signer         before issuing attestations.",
    "version": 1
  },
  "storageLayout": {
    "storage": [
      {
        "astId": 4821,
        "contract": "contracts/certificates/modules/RubyscoreSignCheckModule.sol:RubyscoreSignCheckModule",
        "label": "_nameFallback",
        "offset": 0,
        "slot": "0",
        "type": "t_string_storage"
      },
      {
        "astId": 4823,
        "contract": "contracts/certificates/modules/RubyscoreSignCheckModule.sol:RubyscoreSignCheckModule",
        "label": "_versionFallback",
        "offset": 0,
        "slot": "1",
        "type": "t_string_storage"
      },
      {
        "astId": 396,
        "contract": "contracts/certificates/modules/RubyscoreSignCheckModule.sol:RubyscoreSignCheckModule",
        "label": "_owner",
        "offset": 0,
        "slot": "2",
        "type": "t_address"
      },
      {
        "astId": 10184,
        "contract": "contracts/certificates/modules/RubyscoreSignCheckModule.sol:RubyscoreSignCheckModule",
        "label": "signer",
        "offset": 0,
        "slot": "3",
        "type": "t_address"
      }
    ],
    "types": {
      "t_address": {
        "encoding": "inplace",
        "label": "address",
        "numberOfBytes": "20"
      },
      "t_string_storage": {
        "encoding": "bytes",
        "label": "string",
        "numberOfBytes": "32"
      }
    }
  }
}