{
  "address": "0x5E1FE999737bce29Ca8C73B844eB1483005f6148",
  "abi": [
    {
      "inputs": [
        {
          "internalType": "address[]",
          "name": "modules",
          "type": "address[]"
        },
        {
          "internalType": "address",
          "name": "router",
          "type": "address"
        }
      ],
      "stateMutability": "nonpayable",
      "type": "constructor"
    },
    {
      "inputs": [],
      "name": "ArrayLengthMismatch",
      "type": "error"
    },
    {
      "inputs": [],
      "name": "InvalidAttestationFee",
      "type": "error"
    },
    {
      "inputs": [],
      "name": "InvalidCertificateId",
      "type": "error"
    },
    {
      "inputs": [],
      "name": "OnlyPortalOwner",
      "type": "error"
    },
    {
      "inputs": [],
      "name": "WithdrawFail",
      "type": "error"
    },
    {
      "inputs": [],
      "name": "ZeroAddressCheck",
      "type": "error"
    },
    {
      "anonymous": false,
      "inputs": [
        {
          "indexed": false,
          "internalType": "bytes32[]",
          "name": "schemaIds",
          "type": "bytes32[]"
        },
        {
          "indexed": false,
          "internalType": "uint256[]",
          "name": "attestationFees",
          "type": "uint256[]"
        }
      ],
      "name": "FeesSet",
      "type": "event"
    },
    {
      "anonymous": false,
      "inputs": [
        {
          "indexed": true,
          "internalType": "address",
          "name": "previousOwner",
          "type": "address"
        },
        {
          "indexed": true,
          "internalType": "address",
          "name": "newOwner",
          "type": "address"
        }
      ],
      "name": "OwnershipTransferred",
      "type": "event"
    },
    {
      "anonymous": false,
      "inputs": [
        {
          "indexed": false,
          "internalType": "address",
          "name": "account",
          "type": "address"
        }
      ],
      "name": "Paused",
      "type": "event"
    },
    {
      "anonymous": false,
      "inputs": [
        {
          "indexed": false,
          "internalType": "address",
          "name": "account",
          "type": "address"
        }
      ],
      "name": "Unpaused",
      "type": "event"
    },
    {
      "inputs": [
        {
          "internalType": "address",
          "name": "module",
          "type": "address"
        }
      ],
      "name": "addModule",
      "outputs": [],
      "stateMutability": "nonpayable",
      "type": "function"
    },
    {
      "inputs": [
        {
          "components": [
            {
              "internalType": "bytes32",
              "name": "schemaId",
              "type": "bytes32"
            },
            {
              "internalType": "uint64",
              "name": "expirationDate",
              "type": "uint64"
            },
            {
              "internalType": "bytes",
              "name": "subject",
              "type": "bytes"
            },
            {
              "internalType": "bytes",
              "name": "attestationData",
              "type": "bytes"
            }
          ],
          "internalType": "struct AttestationPayload",
          "name": "attestationPayload",
          "type": "tuple"
        },
        {
          "internalType": "bytes[]",
          "name": "validationPayloads",
          "type": "bytes[]"
        }
      ],
      "name": "attest",
      "outputs": [],
      "stateMutability": "payable",
      "type": "function"
    },
    {
      "inputs": [
        {
          "components": [
            {
              "internalType": "bytes32",
              "name": "schemaId",
              "type": "bytes32"
            },
            {
              "internalType": "uint64",
              "name": "expirationDate",
              "type": "uint64"
            },
            {
              "internalType": "bytes",
              "name": "subject",
              "type": "bytes"
            },
            {
              "internalType": "bytes",
              "name": "attestationData",
              "type": "bytes"
            }
          ],
          "internalType": "struct AttestationPayload",
          "name": "attestationPayload",
          "type": "tuple"
        },
        {
          "internalType": "bytes[]",
          "name": "validationPayload",
          "type": "bytes[]"
        }
      ],
      "name": "attestRubyscore",
      "outputs": [],
      "stateMutability": "payable",
      "type": "function"
    },
    {
      "inputs": [
        {
          "internalType": "bytes32",
          "name": "",
          "type": "bytes32"
        }
      ],
      "name": "attestationFees",
      "outputs": [
        {
          "internalType": "uint256",
          "name": "",
          "type": "uint256"
        }
      ],
      "stateMutability": "view",
      "type": "function"
    },
    {
      "inputs": [],
      "name": "attestationRegistry",
      "outputs": [
        {
          "internalType": "contract IAttestationRegistry",
          "name": "",
          "type": "address"
        }
      ],
      "stateMutability": "view",
      "type": "function"
    },
    {
      "inputs": [
        {
          "components": [
            {
              "internalType": "bytes32",
              "name": "schemaId",
              "type": "bytes32"
            },
            {
              "internalType": "uint64",
              "name": "expirationDate",
              "type": "uint64"
            },
            {
              "internalType": "bytes",
              "name": "subject",
              "type": "bytes"
            },
            {
              "internalType": "bytes",
              "name": "attestationData",
              "type": "bytes"
            }
          ],
          "internalType": "struct AttestationPayload[]",
          "name": "attestationsPayloads",
          "type": "tuple[]"
        },
        {
          "internalType": "bytes[][]",
          "name": "validationPayloads",
          "type": "bytes[][]"
        }
      ],
      "name": "bulkAttest",
      "outputs": [],
      "stateMutability": "nonpayable",
      "type": "function"
    },
    {
      "inputs": [
        {
          "internalType": "bytes32[]",
          "name": "attestationIds",
          "type": "bytes32[]"
        },
        {
          "components": [
            {
              "internalType": "bytes32",
              "name": "schemaId",
              "type": "bytes32"
            },
            {
              "internalType": "uint64",
              "name": "expirationDate",
              "type": "uint64"
            },
            {
              "internalType": "bytes",
              "name": "subject",
              "type": "bytes"
            },
            {
              "internalType": "bytes",
              "name": "attestationData",
              "type": "bytes"
            }
          ],
          "internalType": "struct AttestationPayload[]",
          "name": "attestationsPayloads",
          "type": "tuple[]"
        },
        {
          "internalType": "bytes[][]",
          "name": "validationPayloads",
          "type": "bytes[][]"
        }
      ],
      "name": "bulkReplace",
      "outputs": [],
      "stateMutability": "nonpayable",
      "type": "function"
    },
    {
      "inputs": [
        {
          "internalType": "bytes32[]",
          "name": "attestationIds",
          "type": "bytes32[]"
        }
      ],
      "name": "bulkRevoke",
      "outputs": [],
      "stateMutability": "nonpayable",
      "type": "function"
    },
    {
      "inputs": [],
      "name": "bulkStatus",
      "outputs": [
        {
          "internalType": "bool",
          "name": "",
          "type": "bool"
        }
      ],
      "stateMutability": "view",
      "type": "function"
    },
    {
      "inputs": [
        {
          "internalType": "bytes32",
          "name": "",
          "type": "bytes32"
        }
      ],
      "name": "certificates",
      "outputs": [
        {
          "internalType": "bool",
          "name": "",
          "type": "bool"
        }
      ],
      "stateMutability": "view",
      "type": "function"
    },
    {
      "inputs": [
        {
          "internalType": "bytes32",
          "name": "schemaId",
          "type": "bytes32"
        },
        {
          "internalType": "uint256",
          "name": "_value",
          "type": "uint256"
        }
      ],
      "name": "checkFee",
      "outputs": [],
      "stateMutability": "view",
      "type": "function"
    },
    {
      "inputs": [],
      "name": "feeStatus",
      "outputs": [
        {
          "internalType": "bool",
          "name": "",
          "type": "bool"
        }
      ],
      "stateMutability": "view",
      "type": "function"
    },
    {
      "inputs": [],
      "name": "getAttester",
      "outputs": [
        {
          "internalType": "address",
          "name": "",
          "type": "address"
        }
      ],
      "stateMutability": "view",
      "type": "function"
    },
    {
      "inputs": [],
      "name": "getModules",
      "outputs": [
        {
          "internalType": "address[]",
          "name": "",
          "type": "address[]"
        }
      ],
      "stateMutability": "view",
      "type": "function"
    },
    {
      "inputs": [],
      "name": "moduleRegistry",
      "outputs": [
        {
          "internalType": "contract IModuleRegistry",
          "name": "",
          "type": "address"
        }
      ],
      "stateMutability": "view",
      "type": "function"
    },
    {
      "inputs": [
        {
          "internalType": "uint256",
          "name": "",
          "type": "uint256"
        }
      ],
      "name": "modules",
      "outputs": [
        {
          "internalType": "address",
          "name": "",
          "type": "address"
        }
      ],
      "stateMutability": "view",
      "type": "function"
    },
    {
      "inputs": [],
      "name": "owner",
      "outputs": [
        {
          "internalType": "address",
          "name": "",
          "type": "address"
        }
      ],
      "stateMutability": "view",
      "type": "function"
    },
    {
      "inputs": [],
      "name": "pause",
      "outputs": [],
      "stateMutability": "nonpayable",
      "type": "function"
    },
    {
      "inputs": [],
      "name": "paused",
      "outputs": [
        {
          "internalType": "bool",
          "name": "",
          "type": "bool"
        }
      ],
      "stateMutability": "view",
      "type": "function"
    },
    {
      "inputs": [],
      "name": "portalRegistry",
      "outputs": [
        {
          "internalType": "contract IPortalRegistry",
          "name": "",
          "type": "address"
        }
      ],
      "stateMutability": "view",
      "type": "function"
    },
    {
      "inputs": [],
      "name": "removeModules",
      "outputs": [],
      "stateMutability": "nonpayable",
      "type": "function"
    },
    {
      "inputs": [],
      "name": "renounceOwnership",
      "outputs": [],
      "stateMutability": "nonpayable",
      "type": "function"
    },
    {
      "inputs": [
        {
          "internalType": "bytes32",
          "name": "attestationId",
          "type": "bytes32"
        },
        {
          "components": [
            {
              "internalType": "bytes32",
              "name": "schemaId",
              "type": "bytes32"
            },
            {
              "internalType": "uint64",
              "name": "expirationDate",
              "type": "uint64"
            },
            {
              "internalType": "bytes",
              "name": "subject",
              "type": "bytes"
            },
            {
              "internalType": "bytes",
              "name": "attestationData",
              "type": "bytes"
            }
          ],
          "internalType": "struct AttestationPayload",
          "name": "attestationPayload",
          "type": "tuple"
        },
        {
          "internalType": "bytes[]",
          "name": "validationPayloads",
          "type": "bytes[]"
        }
      ],
      "name": "replace",
      "outputs": [],
      "stateMutability": "payable",
      "type": "function"
    },
    {
      "inputs": [
        {
          "internalType": "bytes32",
          "name": "attestationId",
          "type": "bytes32"
        }
      ],
      "name": "revoke",
      "outputs": [],
      "stateMutability": "nonpayable",
      "type": "function"
    },
    {
      "inputs": [],
      "name": "router",
      "outputs": [
        {
          "internalType": "contract IRouter",
          "name": "",
          "type": "address"
        }
      ],
      "stateMutability": "view",
      "type": "function"
    },
    {
      "inputs": [
        {
          "internalType": "bool",
          "name": "fee",
          "type": "bool"
        },
        {
          "internalType": "bool",
          "name": "bulk",
          "type": "bool"
        }
      ],
      "name": "setCheckStatuses",
      "outputs": [],
      "stateMutability": "nonpayable",
      "type": "function"
    },
    {
      "inputs": [
        {
          "internalType": "bytes32[]",
          "name": "schemaIds",
          "type": "bytes32[]"
        },
        {
          "internalType": "uint256[]",
          "name": "_attestationFees",
          "type": "uint256[]"
        }
      ],
      "name": "setFees",
      "outputs": [],
      "stateMutability": "nonpayable",
      "type": "function"
    },
    {
      "inputs": [
        {
          "internalType": "bytes32[]",
          "name": "schemaIds",
          "type": "bytes32[]"
        },
        {
          "internalType": "bool[]",
          "name": "certificateStatuses",
          "type": "bool[]"
        }
      ],
      "name": "setUpCertificates",
      "outputs": [],
      "stateMutability": "nonpayable",
      "type": "function"
    },
    {
      "inputs": [
        {
          "internalType": "bytes4",
          "name": "interfaceID",
          "type": "bytes4"
        }
      ],
      "name": "supportsInterface",
      "outputs": [
        {
          "internalType": "bool",
          "name": "",
          "type": "bool"
        }
      ],
      "stateMutability": "pure",
      "type": "function"
    },
    {
      "inputs": [
        {
          "internalType": "address",
          "name": "newOwner",
          "type": "address"
        }
      ],
      "name": "transferOwnership",
      "outputs": [],
      "stateMutability": "nonpayable",
      "type": "function"
    },
    {
      "inputs": [],
      "name": "unpause",
      "outputs": [],
      "stateMutability": "nonpayable",
      "type": "function"
    },
    {
      "inputs": [
        {
          "internalType": "address payable",
          "name": "to",
          "type": "address"
        },
        {
          "internalType": "uint256",
          "name": "amount",
          "type": "uint256"
        }
      ],
      "name": "withdraw",
      "outputs": [],
      "stateMutability": "nonpayable",
      "type": "function"
    }
  ],
  "transactionHash": "0x41715f55aa1c07a93ef95f9aa5f4280b47f3b054c599785ba30dcf005629b077",
  "args": [
    [
      "0xaCD70AdfeEe619ACa7354e9c89C6a86968d11078"
    ],
    "0x736c78b2f2cBf4F921E8551b2acB6A5Edc9177D5"
  ],
  "numDeployments": 2,
  "solcInputHash": "1b500af459c4272cf599f0e1844a2b2e",
  "bytecode": "0x60806040526005805461ffff60a81b1916600160b01b1790553480156200002557600080fd5b50604051620024d4380380620024d483398101604081905262000048916200036f565b81518290829062000061906001906020850190620002bb565b50600080546001600160a01b0319166001600160a01b0383169081179091556040805163bfa6658560e01b8152905163bfa66585916004808201926020929091908290030181865afa158015620000bc573d6000803e3d6000fd5b505050506040513d601f19601f82011682018060405250810190620000e2919062000455565b600380546001600160a01b0319166001600160a01b03928316179055600054604080516376f63ca960e11b81529051919092169163edec79529160048083019260209291908290030181865afa15801562000141573d6000803e3d6000fd5b505050506040513d601f19601f8201168201806040525081019062000167919062000455565b600280546001600160a01b0319166001600160a01b0392831617905560005460408051635bed64bb60e11b81529051919092169163b7dac9769160048083019260209291908290030181865afa158015620001c6573d6000803e3d6000fd5b505050506040513d601f19601f82011682018060405250810190620001ec919062000455565b600480546001600160a01b0319166001600160a01b0392909216919091179055506200022190506200021b3390565b62000269565b6005805460ff60a01b191690556001600160a01b03811662000256576040516399676b1160e01b815260040160405180910390fd5b620002613362000269565b50506200047a565b600580546001600160a01b038381166001600160a01b0319831681179093556040519116919082907f8be0079c531659141344cd1fd0a4f28419497f9722a3daafe3b4186f6b6457e090600090a35050565b82805482825590600052602060002090810192821562000313579160200282015b828111156200031357825182546001600160a01b0319166001600160a01b03909116178255602090920191600190910190620002dc565b506200032192915062000325565b5090565b5b8082111562000321576000815560010162000326565b634e487b7160e01b600052604160045260246000fd5b80516001600160a01b03811681146200036a57600080fd5b919050565b600080604083850312156200038357600080fd5b82516001600160401b03808211156200039b57600080fd5b818501915085601f830112620003b057600080fd5b8151602082821115620003c757620003c76200033c565b8160051b604051601f19603f83011681018181108682111715620003ef57620003ef6200033c565b6040529283528183019350848101820192898411156200040e57600080fd5b948201945b838610156200043757620004278662000352565b8552948201949382019362000413565b965062000448905087820162000352565b9450505050509250929050565b6000602082840312156200046857600080fd5b620004738262000352565b9392505050565b61204a806200048a6000396000f3fe6080604052600436106101e35760003560e01c80638456cb5911610102578063b666493411610095578063ed6d73f911610064578063ed6d73f914610563578063f2fde38b14610583578063f3fef3a3146105a3578063f887ea40146105c357600080fd5b8063b6664934146104f0578063b75c7dc614610510578063b95459e414610530578063ecdbb4fd1461055057600080fd5b80639e69bee9116100d15780639e69bee914610479578063acdfb1bb14610499578063b2494df3146104ae578063b2c8ea79146104d057600080fd5b80638456cb59146104055780638da5cb5b1461041a578063958f9735146104385780639c1584dc1461045957600080fd5b80633f4ba83a1161017a578063715018a611610149578063715018a614610375578063742f06881461038a57806381b2248a146103ba5780638388e226146103f257600080fd5b80633f4ba83a146103015780634ada807614610316578063523ba7ca146103365780635c975abb1461035657600080fd5b80631ed86f19116101b65780631ed86f191461028057806320d8d2a4146102a057806339f08d1c146102c15780633cc30e2a146102e157600080fd5b806301ffc9a7146101e857806303e25c491461021d57806305e67f6314610258578063074321961461026d575b600080fd5b3480156101f457600080fd5b506102086102033660046111fb565b6105e3565b60405190151581526020015b60405180910390f35b34801561022957600080fd5b5061024a61023836600461122c565b60076020526000908152604090205481565b604051908152602001610214565b61026b61026636600461148b565b610635565b005b61026b61027b36600461148b565b610674565b34801561028c57600080fd5b5061026b61029b366004611503565b610754565b3480156102ac57600080fd5b5060055461020890600160a81b900460ff1681565b3480156102cd57600080fd5b5061026b6102dc366004611520565b6107ad565b3480156102ed57600080fd5b5061026b6102fc36600461169b565b6107dc565b34801561030d57600080fd5b5061026b6108b7565b34801561032257600080fd5b5061026b610331366004611722565b6108c9565b34801561034257600080fd5b5061026b61035136600461175e565b610937565b34801561036257600080fd5b50600554600160a01b900460ff16610208565b34801561038157600080fd5b5061026b6109d8565b34801561039657600080fd5b506102086103a536600461122c565b60066020526000908152604090205460ff1681565b3480156103c657600080fd5b506103da6103d536600461122c565b6109ea565b6040516001600160a01b039091168152602001610214565b3480156103fe57600080fd5b50336103da565b34801561041157600080fd5b5061026b610a14565b34801561042657600080fd5b506005546001600160a01b03166103da565b34801561044457600080fd5b5060055461020890600160b01b900460ff1681565b34801561046557600080fd5b5061026b6104743660046117c5565b610a24565b34801561048557600080fd5b5061026b6104943660046117fe565b610a60565b3480156104a557600080fd5b5061026b610b31565b3480156104ba57600080fd5b506104c3610b4d565b60405161021491906118b8565b3480156104dc57600080fd5b5061026b6104eb366004611950565b610baf565b3480156104fc57600080fd5b506004546103da906001600160a01b031681565b34801561051c57600080fd5b5061026b61052b36600461122c565b610c5e565b34801561053c57600080fd5b506002546103da906001600160a01b031681565b61026b61055e3660046119bb565b610c98565b34801561056f57600080fd5b506003546103da906001600160a01b031681565b34801561058f57600080fd5b5061026b61059e366004611503565b610d45565b3480156105af57600080fd5b5061026b6105be366004611a1d565b610dc3565b3480156105cf57600080fd5b506000546103da906001600160a01b031681565b60006001600160e01b0319821663204cf90960e01b148061061457506001600160e01b031982166331c1afd560e01b145b8061062f57506001600160e01b031982166301ffc9a760e01b145b92915050565b815160009081526006602052604090205460ff16610666576040516304a057b360e21b815260040160405180910390fd5b6106708282610674565b5050565b60025460405163747129e560e11b81526001600160a01b039091169063e8e253ca906106ab90600190869086903490600401611b8b565b600060405180830381600087803b1580156106c557600080fd5b505af11580156106d9573d6000803e3d6000fd5b505050506106ee826106e83390565b34610e43565b6003546001600160a01b03166362fa3d4583336040518363ffffffff1660e01b815260040161071e929190611bd6565b600060405180830381600087803b15801561073857600080fd5b505af115801561074c573d6000803e3d6000fd5b505050505050565b61075c610e69565b6001805480820182556000919091527fb10e2d527612073b26eecdfd717e6a320cf44b4afac2b0732d9fcbe2b7fa0cf60180546001600160a01b0319166001600160a01b0392909216919091179055565b600082815260076020526040902054811015610670576040516330c00ff760e01b815260040160405180910390fd5b60025460405163715d762560e11b81526001600160a01b039091169063e2baec4a906108119060019086908690600401611c48565b600060405180830381600087803b15801561082b57600080fd5b505af115801561083f573d6000803e3d6000fd5b5050505061084e838383610ec3565b6003546001600160a01b0316636ec4d4cb8484336040518463ffffffff1660e01b815260040161088093929190611cff565b600060405180830381600087803b15801561089a57600080fd5b505af11580156108ae573d6000803e3d6000fd5b50505050505050565b6108bf610e69565b6108c7610f1a565b565b6108d281610f6f565b60035460405163256d403b60e11b81526001600160a01b0390911690634ada807690610902908490600401611d3d565b600060405180830381600087803b15801561091c57600080fd5b505af1158015610930573d6000803e3d6000fd5b5050505050565b60025460405163715d762560e11b81526001600160a01b039091169063e2baec4a9061096c9060019086908690600401611c48565b600060405180830381600087803b15801561098657600080fd5b505af115801561099a573d6000803e3d6000fd5b505050506109a88282611015565b6003546001600160a01b031663a8e2812d83336040518363ffffffff1660e01b815260040161071e929190611d50565b6109e0610e69565b6108c7600061106b565b600181815481106109fa57600080fd5b6000918252602090912001546001600160a01b0316905081565b610a1c610e69565b6108c76110bd565b610a2c610e69565b6005805461ffff60a81b1916600160b01b9315159390930260ff60a81b191692909217600160a81b91151591909102179055565b610a68610e69565b8051825114610a8a5760405163512509d360e11b815260040160405180910390fd5b60005b8251811015610af357818181518110610aa857610aa8611d63565b602002602001015160076000858481518110610ac657610ac6611d63565b60200260200101518152602001908152602001600020819055508080610aeb90611d79565b915050610a8d565b507fe6819e2393072526980433f94718a65624dac839c064a79991c3d8d06cba0c1a8282604051610b25929190611da0565b60405180910390a15050565b610b39610e69565b610b41611100565b6108c7600160006111c9565b60606001805480602002602001604051908101604052809291908181526020018280548015610ba557602002820191906000526020600020905b81546001600160a01b03168152600190910190602001808311610b87575b5050505050905090565b610bb7610e69565b828114610bd75760405163512509d360e11b815260040160405180910390fd5b60005b8381101561093057828282818110610bf457610bf4611d63565b9050602002016020810190610c099190611df7565b60066000878785818110610c1f57610c1f611d63565b90506020020135815260200190815260200160002060006101000a81548160ff0219169083151502179055508080610c5690611d79565b915050610bda565b610c6781610f6f565b600354604051635bae3ee360e11b8152600481018390526001600160a01b039091169063b75c7dc690602401610902565b60025460405163747129e560e11b81526001600160a01b039091169063e8e253ca90610ccf90600190869086903490600401611b8b565b600060405180830381600087803b158015610ce957600080fd5b505af1158015610cfd573d6000803e3d6000fd5b50505050610d138383610d0d3390565b34611150565b6003546001600160a01b0316638ffa736b8484336040518463ffffffff1660e01b815260040161088093929190611e14565b610d4d610e69565b6001600160a01b038116610db75760405162461bcd60e51b815260206004820152602660248201527f4f776e61626c653a206e6577206f776e657220697320746865207a65726f206160448201526564647265737360d01b60648201526084015b60405180910390fd5b610dc08161106b565b50565b610dcb610e69565b6000826001600160a01b03168260405160006040518083038185875af1925050503d8060008114610e18576040519150601f19603f3d011682016040523d82523d6000602084013e610e1d565b606091505b5050905080610e3e5760405162c0f29960e01b815260040160405180910390fd5b505050565b610e4b61117c565b600554600160b01b900460ff1615610e3e578251610e3e90826107ad565b6005546001600160a01b031633146108c75760405162461bcd60e51b815260206004820181905260248201527f4f776e61626c653a2063616c6c6572206973206e6f7420746865206f776e65726044820152606401610dae565b610ecb61117c565b600554600160a81b900460ff16610e3e5760405162461bcd60e51b81526020600482015260136024820152724f6e6c792073696e676c65207265706c61636560681b6044820152606401610dae565b610f22611100565b6005805460ff60a01b191690557f5db9ee0a495bf2e6ff9c91a7834c1ba4fdd244a5e8aa4e537bd38aeae4b073aa335b6040516001600160a01b03909116815260200160405180910390a1565b6004805460405163181f78e960e31b815230928101929092526001600160a01b03169063c0fbc74890602401600060405180830381865afa158015610fb8573d6000803e3d6000fd5b505050506040513d6000823e601f3d908101601f19168201604052610fe09190810190611f09565b602001516001600160a01b0316336001600160a01b031614610dc0576040516371f63e3160e01b815260040160405180910390fd5b61101d61117c565b600554600160a81b900460ff166106705760405162461bcd60e51b815260206004820152601260248201527113db9b1e481cda5b99db1948185d1d195cdd60721b6044820152606401610dae565b600580546001600160a01b038381166001600160a01b0319831681179093556040519116919082907f8be0079c531659141344cd1fd0a4f28419497f9722a3daafe3b4186f6b6457e090600090a35050565b6110c561117c565b6005805460ff60a01b1916600160a01b1790557f62e78cea01bee320cd4e420270b5ea74000d11b0c9f74754ebdbfc544b05a258610f523390565b600554600160a01b900460ff166108c75760405162461bcd60e51b815260206004820152601460248201527314185d5cd8589b194e881b9bdd081c185d5cd95960621b6044820152606401610dae565b61115861117c565b600554600160b01b900460ff161561117657825161117690826107ad565b50505050565b600554600160a01b900460ff16156108c75760405162461bcd60e51b815260206004820152601060248201526f14185d5cd8589b194e881c185d5cd95960821b6044820152606401610dae565b5080546000825590600052602060002090810190610dc091905b808211156111f757600081556001016111e3565b5090565b60006020828403121561120d57600080fd5b81356001600160e01b03198116811461122557600080fd5b9392505050565b60006020828403121561123e57600080fd5b5035919050565b634e487b7160e01b600052604160045260246000fd5b60405160e081016001600160401b038111828210171561127d5761127d611245565b60405290565b604051601f8201601f191681016001600160401b03811182821017156112ab576112ab611245565b604052919050565b60006001600160401b038211156112cc576112cc611245565b50601f01601f191660200190565b600082601f8301126112eb57600080fd5b81356112fe6112f9826112b3565b611283565b81815284602083860101111561131357600080fd5b816020850160208301376000918101602001919091529392505050565b60006080828403121561134257600080fd5b604051608081016001600160401b03828210818311171561136557611365611245565b816040528293508435835260208501359150808216821461138557600080fd5b816020840152604085013591508082111561139f57600080fd5b6113ab868387016112da565b604084015260608501359150808211156113c457600080fd5b506113d1858286016112da565b6060830152505092915050565b60006001600160401b038211156113f7576113f7611245565b5060051b60200190565b600082601f83011261141257600080fd5b813560206114226112f9836113de565b82815260059290921b8401810191818101908684111561144157600080fd5b8286015b848110156114805780356001600160401b038111156114645760008081fd5b6114728986838b01016112da565b845250918301918301611445565b509695505050505050565b6000806040838503121561149e57600080fd5b82356001600160401b03808211156114b557600080fd5b6114c186838701611330565b935060208501359150808211156114d757600080fd5b506114e485828601611401565b9150509250929050565b6001600160a01b0381168114610dc057600080fd5b60006020828403121561151557600080fd5b8135611225816114ee565b6000806040838503121561153357600080fd5b50508035926020909101359150565b600082601f83011261155357600080fd5b813560206115636112f9836113de565b82815260059290921b8401810191818101908684111561158257600080fd5b8286015b848110156114805780358352918301918301611586565b600082601f8301126115ae57600080fd5b813560206115be6112f9836113de565b82815260059290921b840181019181810190868411156115dd57600080fd5b8286015b848110156114805780356001600160401b038111156116005760008081fd5b61160e8986838b0101611330565b8452509183019183016115e1565b600082601f83011261162d57600080fd5b8135602061163d6112f9836113de565b82815260059290921b8401810191818101908684111561165c57600080fd5b8286015b848110156114805780356001600160401b0381111561167f5760008081fd5b61168d8986838b0101611401565b845250918301918301611660565b6000806000606084860312156116b057600080fd5b83356001600160401b03808211156116c757600080fd5b6116d387838801611542565b945060208601359150808211156116e957600080fd5b6116f58783880161159d565b9350604086013591508082111561170b57600080fd5b506117188682870161161c565b9150509250925092565b60006020828403121561173457600080fd5b81356001600160401b0381111561174a57600080fd5b61175684828501611542565b949350505050565b6000806040838503121561177157600080fd5b82356001600160401b038082111561178857600080fd5b6117948683870161159d565b935060208501359150808211156117aa57600080fd5b506114e48582860161161c565b8015158114610dc057600080fd5b600080604083850312156117d857600080fd5b82356117e3816117b7565b915060208301356117f3816117b7565b809150509250929050565b6000806040838503121561181157600080fd5b82356001600160401b038082111561182857600080fd5b61183486838701611542565b935060209150818501358181111561184b57600080fd5b85019050601f8101861361185e57600080fd5b803561186c6112f9826113de565b81815260059190911b8201830190838101908883111561188b57600080fd5b928401925b828410156118a957833582529284019290840190611890565b80955050505050509250929050565b6020808252825182820181905260009190848201906040850190845b818110156118f95783516001600160a01b0316835292840192918401916001016118d4565b50909695505050505050565b60008083601f84011261191757600080fd5b5081356001600160401b0381111561192e57600080fd5b6020830191508360208260051b850101111561194957600080fd5b9250929050565b6000806000806040858703121561196657600080fd5b84356001600160401b038082111561197d57600080fd5b61198988838901611905565b909650945060208701359150808211156119a257600080fd5b506119af87828801611905565b95989497509550505050565b6000806000606084860312156119d057600080fd5b8335925060208401356001600160401b03808211156119ee57600080fd5b6119fa87838801611330565b93506040860135915080821115611a1057600080fd5b5061171886828701611401565b60008060408385031215611a3057600080fd5b8235611a3b816114ee565b946020939093013593505050565b6000815480845260208085019450836000528060002060005b83811015611a875781546001600160a01b031687529582019560019182019101611a62565b509495945050505050565b60005b83811015611aad578181015183820152602001611a95565b50506000910152565b60008151808452611ace816020860160208601611a92565b601f01601f19169290920160200192915050565b805182526001600160401b0360208201511660208301526000604082015160806040850152611b146080850182611ab6565b905060608301518482036060860152611b2d8282611ab6565b95945050505050565b600081518084526020808501808196508360051b8101915082860160005b85811015611b7e578284038952611b6c848351611ab6565b98850198935090840190600101611b54565b5091979650505050505050565b608081526000611b9e6080830187611a49565b8281036020840152611bb08187611ae2565b90508281036040840152611bc48186611b36565b91505082606083015295945050505050565b604081526000611be96040830185611ae2565b905060018060a01b03831660208301529392505050565b600081518084526020808501808196508360051b8101915082860160005b85811015611b7e578284038952611c36848351611ae2565b98850198935090840190600101611c1e565b606081526000611c5b6060830186611a49565b602083820381850152611c6e8287611c00565b915083820360408501528185518084528284019150828160051b85010183880160005b83811015611cbf57601f19878403018552611cad838351611b36565b94860194925090850190600101611c91565b50909a9950505050505050505050565b600081518084526020808501945080840160005b83811015611a8757815187529582019590820190600101611ce3565b606081526000611d126060830186611ccf565b8281036020840152611d248186611c00565b91505060018060a01b0383166040830152949350505050565b6020815260006112256020830184611ccf565b604081526000611be96040830185611c00565b634e487b7160e01b600052603260045260246000fd5b600060018201611d9957634e487b7160e01b600052601160045260246000fd5b5060010190565b604081526000611db36040830185611ccf565b82810360208481019190915284518083528582019282019060005b81811015611dea57845183529383019391830191600101611dce565b5090979650505050505050565b600060208284031215611e0957600080fd5b8135611225816117b7565b838152606060208201526000611e2d6060830185611ae2565b905060018060a01b0383166040830152949350505050565b8051611e50816114ee565b919050565b600082601f830112611e6657600080fd5b81516020611e766112f9836113de565b82815260059290921b84018101918181019086841115611e9557600080fd5b8286015b84811015611480578051611eac816114ee565b8352918301918301611e99565b8051611e50816117b7565b600082601f830112611ed557600080fd5b8151611ee36112f9826112b3565b818152846020838601011115611ef857600080fd5b611756826020830160208701611a92565b600060208284031215611f1b57600080fd5b81516001600160401b0380821115611f3257600080fd5b9083019060e08286031215611f4657600080fd5b611f4e61125b565b611f5783611e45565b8152611f6560208401611e45565b6020820152604083015182811115611f7c57600080fd5b611f8887828601611e55565b604083015250611f9a60608401611eb9565b6060820152608083015182811115611fb157600080fd5b611fbd87828601611ec4565b60808301525060a083015182811115611fd557600080fd5b611fe187828601611ec4565b60a08301525060c083015182811115611ff957600080fd5b61200587828601611ec4565b60c0830152509594505050505056fea2646970667358221220f1808b8f537155ac04434c0d41f4100bbc893626d82cc9773ff41157e995a79d64736f6c63430008130033",
  "devdoc": {
    "details": "RubyScoreVeraxPortal is a smart contract that handles the attestation process for RubyScore certificates. It manages fees, signatures based on specific schemas.",
    "events": {
      "Paused(address)": {
        "details": "Emitted when the pause is triggered by `account`."
      },
      "Unpaused(address)": {
        "details": "Emitted when the pause is lifted by `account`."
      }
    },
    "kind": "dev",
    "methods": {
      "addModule(address)": {
        "details": "Add a new module to the list of modules.",
        "params": {
          "module": "The address of the new module."
        }
      },
      "attest((bytes32,uint64,bytes,bytes),bytes[])": {
        "details": "Runs all modules for the portal and registers the attestation using IAttestationRegistry",
        "params": {
          "attestationPayload": "the payload to attest",
          "validationPayloads": "the payloads to validate via the modules to issue the attestations"
        }
      },
      "attestRubyscore((bytes32,uint64,bytes,bytes),bytes[])": {
        "details": "Attest a score with a given attestation payload and validation payloads.",
        "params": {
          "attestationPayload": "The payload of the attestation.",
          "validationPayload": "The validation payload required for the module."
        }
      },
      "bulkAttest((bytes32,uint64,bytes,bytes)[],bytes[][])": {
        "params": {
          "attestationsPayloads": "the payloads to attest",
          "validationPayloads": "the payloads to validate via the modules to issue the attestations"
        }
      },
      "bulkReplace(bytes32[],(bytes32,uint64,bytes,bytes)[],bytes[][])": {
        "params": {
          "attestationIds": "the list of IDs of the attestations to replace",
          "attestationsPayloads": "the list of attestation payloads to create the new attestations and register them",
          "validationPayloads": "the payloads to validate via the modules to issue the attestations"
        }
      },
      "bulkRevoke(bytes32[])": {
        "params": {
          "attestationIds": "the IDs of the attestations to revoke"
        }
      },
      "checkFee(bytes32,uint256)": {
        "details": "Check if the provided value meets the attestation fee requirement.",
        "params": {
          "_value": "The value sent for the attestation.",
          "schemaId": "The schemaId for which to check the fee."
        }
      },
      "constructor": {
        "details": "Contract constructor.",
        "params": {
          "modules": "List of modules to use for the portal.",
          "router": "The Router's address."
        }
      },
      "getAttester()": {
        "details": "We strongly encourage a reflection when overriding this rule: who should be set as the attester?"
      },
      "getModules()": {
        "returns": {
          "_0": "The list of modules addresses linked to the Portal"
        }
      },
      "owner()": {
        "details": "Returns the address of the current owner."
      },
      "paused()": {
        "details": "Returns true if the contract is paused, and false otherwise."
      },
      "removeModules()": {
        "details": "Remove all modules from the list of modules."
      },
      "renounceOwnership()": {
        "details": "Leaves the contract without owner. It will not be possible to call `onlyOwner` functions. Can only be called by the current owner. NOTE: Renouncing ownership will leave the contract without an owner, thereby disabling any functionality that is only available to the owner."
      },
      "replace(bytes32,(bytes32,uint64,bytes,bytes),bytes[])": {
        "details": "Runs all modules for the portal and registers the attestation using IAttestationRegistry",
        "params": {
          "attestationId": "the ID of the attestation to replace",
          "attestationPayload": "the attestation payload to create the new attestation and register it",
          "validationPayloads": "the payloads to validate via the modules to issue the attestation"
        }
      },
      "revoke(bytes32)": {
        "details": "By default, revocation is only possible by the portal owner We strongly encourage implementing such a rule in your Portal if you intend on overriding this method",
        "params": {
          "attestationId": "the ID of the attestation to revoke"
        }
      },
      "setCheckStatuses(bool,bool)": {
        "details": "Set the fee, signature, and issuance statuses.",
        "params": {
          "fee": "Fee status."
        }
      },
      "setFees(bytes32[],uint256[])": {
        "details": "Set the fees for specific schemaIds.",
        "params": {
          "_attestationFees": "The fees required to attest.",
          "schemaIds": "The schemaIds to set the fee for."
        }
      },
      "setUpCertificates(bytes32[],bool[])": {
        "details": "Set up certificate mappings for schemaIds.",
        "params": {
          "certificateStatuses": "The corresponding certificate statuses.",
          "schemaIds": "The schemaIds for which to set up certificates."
        }
      },
      "supportsInterface(bytes4)": {
        "params": {
          "interfaceID": "the interface identifier checked in this call"
        },
        "returns": {
          "_0": "The list of modules addresses linked to the Portal"
        }
      },
      "transferOwnership(address)": {
        "details": "Transfers ownership of the contract to a new account (`newOwner`). Can only be called by the current owner."
      },
      "withdraw(address,uint256)": {
        "details": "Withdraw ETH from the contract.",
        "params": {
          "amount": "The amount of ETH to withdraw.",
          "to": "The address to which the ETH will be withdrawn."
        }
      }
    },
    "title": "RubyScoreVeraxPortal",
    "version": 1
  },
  "userdoc": {
    "errors": {
      "OnlyPortalOwner()": [
        {
          "notice": "Error thrown when someone else than the portal's owner is trying to revoke"
        }
      ]
    },
    "kind": "user",
    "methods": {
      "attest((bytes32,uint64,bytes,bytes),bytes[])": {
        "notice": "Attest the schema with given attestationPayload and validationPayload"
      },
      "bulkAttest((bytes32,uint64,bytes,bytes)[],bytes[][])": {
        "notice": "Bulk attest the schema with payloads to attest and validation payloads"
      },
      "bulkReplace(bytes32[],(bytes32,uint64,bytes,bytes)[],bytes[][])": {
        "notice": "Bulk replaces the attestation for the given identifiers and replaces them with new attestations"
      },
      "bulkRevoke(bytes32[])": {
        "notice": "Bulk revokes a list of attestations for the given identifiers"
      },
      "getAttester()": {
        "notice": "Defines the address of the entity issuing attestations to the subject"
      },
      "getModules()": {
        "notice": "Get all the modules addresses used by the Portal"
      },
      "replace(bytes32,(bytes32,uint64,bytes,bytes),bytes[])": {
        "notice": "Replaces the attestation for the given identifier and replaces it with a new attestation"
      },
      "revoke(bytes32)": {
        "notice": "Revokes an attestation for the given identifier"
      },
      "supportsInterface(bytes4)": {
        "notice": "Verifies that a specific interface is implemented by the Portal, following ERC-165 specification"
      }
    },
    "version": 1
  },
  "storageLayout": {
    "storage": [
      {
        "astId": 8703,
        "contract": "contracts/certificates/RubyScoreVeraxPortal.sol:RubyScoreVeraxPortal",
        "label": "router",
        "offset": 0,
        "slot": "0",
        "type": "t_contract(IRouter)9567"
      },
      {
        "astId": 8706,
        "contract": "contracts/certificates/RubyScoreVeraxPortal.sol:RubyScoreVeraxPortal",
        "label": "modules",
        "offset": 0,
        "slot": "1",
        "type": "t_array(t_address)dyn_storage"
      },
      {
        "astId": 8709,
        "contract": "contracts/certificates/RubyScoreVeraxPortal.sol:RubyScoreVeraxPortal",
        "label": "moduleRegistry",
        "offset": 0,
        "slot": "2",
        "type": "t_contract(IModuleRegistry)9406"
      },
      {
        "astId": 8712,
        "contract": "contracts/certificates/RubyScoreVeraxPortal.sol:RubyScoreVeraxPortal",
        "label": "attestationRegistry",
        "offset": 0,
        "slot": "3",
        "type": "t_contract(IAttestationRegistry)9274"
      },
      {
        "astId": 8715,
        "contract": "contracts/certificates/RubyScoreVeraxPortal.sol:RubyScoreVeraxPortal",
        "label": "portalRegistry",
        "offset": 0,
        "slot": "4",
        "type": "t_contract(IPortalRegistry)9539"
      },
      {
        "astId": 396,
        "contract": "contracts/certificates/RubyScoreVeraxPortal.sol:RubyScoreVeraxPortal",
        "label": "_owner",
        "offset": 0,
        "slot": "5",
        "type": "t_address"
      },
      {
        "astId": 544,
        "contract": "contracts/certificates/RubyScoreVeraxPortal.sol:RubyScoreVeraxPortal",
        "label": "_paused",
        "offset": 20,
        "slot": "5",
        "type": "t_bool"
      },
      {
        "astId": 7781,
        "contract": "contracts/certificates/RubyScoreVeraxPortal.sol:RubyScoreVeraxPortal",
        "label": "bulkStatus",
        "offset": 21,
        "slot": "5",
        "type": "t_bool"
      },
      {
        "astId": 7784,
        "contract": "contracts/certificates/RubyScoreVeraxPortal.sol:RubyScoreVeraxPortal",
        "label": "feeStatus",
        "offset": 22,
        "slot": "5",
        "type": "t_bool"
      },
      {
        "astId": 7788,
        "contract": "contracts/certificates/RubyScoreVeraxPortal.sol:RubyScoreVeraxPortal",
        "label": "certificates",
        "offset": 0,
        "slot": "6",
        "type": "t_mapping(t_bytes32,t_bool)"
      },
      {
        "astId": 7792,
        "contract": "contracts/certificates/RubyScoreVeraxPortal.sol:RubyScoreVeraxPortal",
        "label": "attestationFees",
        "offset": 0,
        "slot": "7",
        "type": "t_mapping(t_bytes32,t_uint256)"
      }
    ],
    "types": {
      "t_address": {
        "encoding": "inplace",
        "label": "address",
        "numberOfBytes": "20"
      },
      "t_array(t_address)dyn_storage": {
        "base": "t_address",
        "encoding": "dynamic_array",
        "label": "address[]",
        "numberOfBytes": "32"
      },
      "t_bool": {
        "encoding": "inplace",
        "label": "bool",
        "numberOfBytes": "1"
      },
      "t_bytes32": {
        "encoding": "inplace",
        "label": "bytes32",
        "numberOfBytes": "32"
      },
      "t_contract(IAttestationRegistry)9274": {
        "encoding": "inplace",
        "label": "contract IAttestationRegistry",
        "numberOfBytes": "20"
      },
      "t_contract(IModuleRegistry)9406": {
        "encoding": "inplace",
        "label": "contract IModuleRegistry",
        "numberOfBytes": "20"
      },
      "t_contract(IPortalRegistry)9539": {
        "encoding": "inplace",
        "label": "contract IPortalRegistry",
        "numberOfBytes": "20"
      },
      "t_contract(IRouter)9567": {
        "encoding": "inplace",
        "label": "contract IRouter",
        "numberOfBytes": "20"
      },
      "t_mapping(t_bytes32,t_bool)": {
        "encoding": "mapping",
        "key": "t_bytes32",
        "label": "mapping(bytes32 => bool)",
        "numberOfBytes": "32",
        "value": "t_bool"
      },
      "t_mapping(t_bytes32,t_uint256)": {
        "encoding": "mapping",
        "key": "t_bytes32",
        "label": "mapping(bytes32 => uint256)",
        "numberOfBytes": "32",
        "value": "t_uint256"
      },
      "t_uint256": {
        "encoding": "inplace",
        "label": "uint256",
        "numberOfBytes": "32"
      }
    }
  }
}