{
  "address": "0x53643DfdA47762821dfe1a19DC09E69e5c3b6dED",
  "abi": [
    {
      "inputs": [
        {
          "internalType": "address",
          "name": "admin",
          "type": "address"
        },
        {
          "internalType": "address",
          "name": "operator",
          "type": "address"
        },
        {
          "internalType": "address",
          "name": "minter",
          "type": "address"
        },
        {
          "internalType": "string",
          "name": "baseURI",
          "type": "string"
        },
        {
          "internalType": "string",
          "name": "_name",
          "type": "string"
        },
        {
          "internalType": "string",
          "name": "_symbol",
          "type": "string"
        }
      ],
      "stateMutability": "nonpayable",
      "type": "constructor"
    },
    {
      "anonymous": false,
      "inputs": [
        {
          "indexed": true,
          "internalType": "address",
          "name": "account",
          "type": "address"
        },
        {
          "indexed": true,
          "internalType": "address",
          "name": "operator",
          "type": "address"
        },
        {
          "indexed": false,
          "internalType": "bool",
          "name": "approved",
          "type": "bool"
        }
      ],
      "name": "ApprovalForAll",
      "type": "event"
    },
    {
      "anonymous": false,
      "inputs": [
        {
          "indexed": true,
          "internalType": "string",
          "name": "newBaseURI",
          "type": "string"
        }
      ],
      "name": "BaseURISet",
      "type": "event"
    },
    {
      "anonymous": false,
      "inputs": [
        {
          "indexed": true,
          "internalType": "address",
          "name": "userAddress",
          "type": "address"
        },
        {
          "indexed": false,
          "internalType": "uint256[]",
          "name": "nftIds",
          "type": "uint256[]"
        }
      ],
      "name": "BatchMinted",
      "type": "event"
    },
    {
      "anonymous": false,
      "inputs": [
        {
          "indexed": true,
          "internalType": "address",
          "name": "userAddress",
          "type": "address"
        },
        {
          "indexed": false,
          "internalType": "uint256",
          "name": "nftId",
          "type": "uint256"
        }
      ],
      "name": "Minted",
      "type": "event"
    },
    {
      "anonymous": false,
      "inputs": [
        {
          "indexed": true,
          "internalType": "bytes32",
          "name": "role",
          "type": "bytes32"
        },
        {
          "indexed": true,
          "internalType": "bytes32",
          "name": "previousAdminRole",
          "type": "bytes32"
        },
        {
          "indexed": true,
          "internalType": "bytes32",
          "name": "newAdminRole",
          "type": "bytes32"
        }
      ],
      "name": "RoleAdminChanged",
      "type": "event"
    },
    {
      "anonymous": false,
      "inputs": [
        {
          "indexed": true,
          "internalType": "bytes32",
          "name": "role",
          "type": "bytes32"
        },
        {
          "indexed": true,
          "internalType": "address",
          "name": "account",
          "type": "address"
        },
        {
          "indexed": true,
          "internalType": "address",
          "name": "sender",
          "type": "address"
        }
      ],
      "name": "RoleGranted",
      "type": "event"
    },
    {
      "anonymous": false,
      "inputs": [
        {
          "indexed": true,
          "internalType": "bytes32",
          "name": "role",
          "type": "bytes32"
        },
        {
          "indexed": true,
          "internalType": "address",
          "name": "account",
          "type": "address"
        },
        {
          "indexed": true,
          "internalType": "address",
          "name": "sender",
          "type": "address"
        }
      ],
      "name": "RoleRevoked",
      "type": "event"
    },
    {
      "anonymous": false,
      "inputs": [
        {
          "indexed": true,
          "internalType": "uint256",
          "name": "tokenId",
          "type": "uint256"
        },
        {
          "indexed": true,
          "internalType": "string",
          "name": "newTokenURI",
          "type": "string"
        }
      ],
      "name": "TokenURISet",
      "type": "event"
    },
    {
      "anonymous": false,
      "inputs": [
        {
          "indexed": true,
          "internalType": "address",
          "name": "operator",
          "type": "address"
        },
        {
          "indexed": true,
          "internalType": "address",
          "name": "from",
          "type": "address"
        },
        {
          "indexed": true,
          "internalType": "address",
          "name": "to",
          "type": "address"
        },
        {
          "indexed": false,
          "internalType": "uint256[]",
          "name": "ids",
          "type": "uint256[]"
        },
        {
          "indexed": false,
          "internalType": "uint256[]",
          "name": "values",
          "type": "uint256[]"
        }
      ],
      "name": "TransferBatch",
      "type": "event"
    },
    {
      "anonymous": false,
      "inputs": [
        {
          "indexed": true,
          "internalType": "address",
          "name": "operator",
          "type": "address"
        },
        {
          "indexed": true,
          "internalType": "address",
          "name": "from",
          "type": "address"
        },
        {
          "indexed": true,
          "internalType": "address",
          "name": "to",
          "type": "address"
        },
        {
          "indexed": false,
          "internalType": "uint256",
          "name": "id",
          "type": "uint256"
        },
        {
          "indexed": false,
          "internalType": "uint256",
          "name": "value",
          "type": "uint256"
        }
      ],
      "name": "TransferSingle",
      "type": "event"
    },
    {
      "anonymous": false,
      "inputs": [
        {
          "indexed": false,
          "internalType": "string",
          "name": "value",
          "type": "string"
        },
        {
          "indexed": true,
          "internalType": "uint256",
          "name": "id",
          "type": "uint256"
        }
      ],
      "name": "URI",
      "type": "event"
    },
    {
      "inputs": [],
      "name": "DEFAULT_ADMIN_ROLE",
      "outputs": [
        {
          "internalType": "bytes32",
          "name": "",
          "type": "bytes32"
        }
      ],
      "stateMutability": "view",
      "type": "function"
    },
    {
      "inputs": [],
      "name": "MINTER_ROLE",
      "outputs": [
        {
          "internalType": "bytes32",
          "name": "",
          "type": "bytes32"
        }
      ],
      "stateMutability": "view",
      "type": "function"
    },
    {
      "inputs": [],
      "name": "OPERATOR_ROLE",
      "outputs": [
        {
          "internalType": "bytes32",
          "name": "",
          "type": "bytes32"
        }
      ],
      "stateMutability": "view",
      "type": "function"
    },
    {
      "inputs": [
        {
          "internalType": "address",
          "name": "account",
          "type": "address"
        },
        {
          "internalType": "uint256",
          "name": "id",
          "type": "uint256"
        }
      ],
      "name": "balanceOf",
      "outputs": [
        {
          "internalType": "uint256",
          "name": "",
          "type": "uint256"
        }
      ],
      "stateMutability": "view",
      "type": "function"
    },
    {
      "inputs": [
        {
          "internalType": "address[]",
          "name": "accounts",
          "type": "address[]"
        },
        {
          "internalType": "uint256[]",
          "name": "ids",
          "type": "uint256[]"
        }
      ],
      "name": "balanceOfBatch",
      "outputs": [
        {
          "internalType": "uint256[]",
          "name": "",
          "type": "uint256[]"
        }
      ],
      "stateMutability": "view",
      "type": "function"
    },
    {
      "inputs": [
        {
          "internalType": "uint256",
          "name": "id",
          "type": "uint256"
        }
      ],
      "name": "exists",
      "outputs": [
        {
          "internalType": "bool",
          "name": "",
          "type": "bool"
        }
      ],
      "stateMutability": "view",
      "type": "function"
    },
    {
      "inputs": [
        {
          "internalType": "bytes32",
          "name": "role",
          "type": "bytes32"
        }
      ],
      "name": "getRoleAdmin",
      "outputs": [
        {
          "internalType": "bytes32",
          "name": "",
          "type": "bytes32"
        }
      ],
      "stateMutability": "view",
      "type": "function"
    },
    {
      "inputs": [
        {
          "internalType": "bytes32",
          "name": "role",
          "type": "bytes32"
        },
        {
          "internalType": "address",
          "name": "account",
          "type": "address"
        }
      ],
      "name": "grantRole",
      "outputs": [],
      "stateMutability": "nonpayable",
      "type": "function"
    },
    {
      "inputs": [
        {
          "internalType": "bytes32",
          "name": "role",
          "type": "bytes32"
        },
        {
          "internalType": "address",
          "name": "account",
          "type": "address"
        }
      ],
      "name": "hasRole",
      "outputs": [
        {
          "internalType": "bool",
          "name": "",
          "type": "bool"
        }
      ],
      "stateMutability": "view",
      "type": "function"
    },
    {
      "inputs": [
        {
          "internalType": "address",
          "name": "account",
          "type": "address"
        },
        {
          "internalType": "address",
          "name": "operator",
          "type": "address"
        }
      ],
      "name": "isApprovedForAll",
      "outputs": [
        {
          "internalType": "bool",
          "name": "",
          "type": "bool"
        }
      ],
      "stateMutability": "view",
      "type": "function"
    },
    {
      "inputs": [],
      "name": "name",
      "outputs": [
        {
          "internalType": "string",
          "name": "",
          "type": "string"
        }
      ],
      "stateMutability": "view",
      "type": "function"
    },
    {
      "inputs": [
        {
          "internalType": "bytes32",
          "name": "role",
          "type": "bytes32"
        },
        {
          "internalType": "address",
          "name": "account",
          "type": "address"
        }
      ],
      "name": "renounceRole",
      "outputs": [],
      "stateMutability": "nonpayable",
      "type": "function"
    },
    {
      "inputs": [
        {
          "internalType": "bytes32",
          "name": "role",
          "type": "bytes32"
        },
        {
          "internalType": "address",
          "name": "account",
          "type": "address"
        }
      ],
      "name": "revokeRole",
      "outputs": [],
      "stateMutability": "nonpayable",
      "type": "function"
    },
    {
      "inputs": [
        {
          "internalType": "address",
          "name": "to",
          "type": "address"
        },
        {
          "internalType": "uint256[]",
          "name": "nftIds",
          "type": "uint256[]"
        }
      ],
      "name": "safeBatchMint",
      "outputs": [],
      "stateMutability": "payable",
      "type": "function"
    },
    {
      "inputs": [
        {
          "internalType": "address",
          "name": "from",
          "type": "address"
        },
        {
          "internalType": "address",
          "name": "to",
          "type": "address"
        },
        {
          "internalType": "uint256[]",
          "name": "ids",
          "type": "uint256[]"
        },
        {
          "internalType": "uint256[]",
          "name": "amounts",
          "type": "uint256[]"
        },
        {
          "internalType": "bytes",
          "name": "data",
          "type": "bytes"
        }
      ],
      "name": "safeBatchTransferFrom",
      "outputs": [],
      "stateMutability": "nonpayable",
      "type": "function"
    },
    {
      "inputs": [
        {
          "internalType": "address",
          "name": "to",
          "type": "address"
        },
        {
          "internalType": "uint256",
          "name": "nftId",
          "type": "uint256"
        }
      ],
      "name": "safeMint",
      "outputs": [],
      "stateMutability": "payable",
      "type": "function"
    },
    {
      "inputs": [
        {
          "internalType": "address",
          "name": "from",
          "type": "address"
        },
        {
          "internalType": "address",
          "name": "to",
          "type": "address"
        },
        {
          "internalType": "uint256",
          "name": "id",
          "type": "uint256"
        },
        {
          "internalType": "uint256",
          "name": "amount",
          "type": "uint256"
        },
        {
          "internalType": "bytes",
          "name": "data",
          "type": "bytes"
        }
      ],
      "name": "safeTransferFrom",
      "outputs": [],
      "stateMutability": "nonpayable",
      "type": "function"
    },
    {
      "inputs": [
        {
          "internalType": "address",
          "name": "operator",
          "type": "address"
        },
        {
          "internalType": "bool",
          "name": "approved",
          "type": "bool"
        }
      ],
      "name": "setApprovalForAll",
      "outputs": [],
      "stateMutability": "nonpayable",
      "type": "function"
    },
    {
      "inputs": [
        {
          "internalType": "string",
          "name": "newBaseURI",
          "type": "string"
        }
      ],
      "name": "setBaseURI",
      "outputs": [],
      "stateMutability": "nonpayable",
      "type": "function"
    },
    {
      "inputs": [
        {
          "internalType": "uint256[]",
          "name": "tokenIds",
          "type": "uint256[]"
        },
        {
          "internalType": "string[]",
          "name": "newTokenURIs",
          "type": "string[]"
        }
      ],
      "name": "setBatchTokenURI",
      "outputs": [],
      "stateMutability": "nonpayable",
      "type": "function"
    },
    {
      "inputs": [
        {
          "internalType": "uint256",
          "name": "tokenId",
          "type": "uint256"
        },
        {
          "internalType": "string",
          "name": "newTokenURI",
          "type": "string"
        }
      ],
      "name": "setTokenURI",
      "outputs": [],
      "stateMutability": "nonpayable",
      "type": "function"
    },
    {
      "inputs": [
        {
          "internalType": "bytes4",
          "name": "interfaceId",
          "type": "bytes4"
        }
      ],
      "name": "supportsInterface",
      "outputs": [
        {
          "internalType": "bool",
          "name": "",
          "type": "bool"
        }
      ],
      "stateMutability": "view",
      "type": "function"
    },
    {
      "inputs": [],
      "name": "symbol",
      "outputs": [
        {
          "internalType": "string",
          "name": "",
          "type": "string"
        }
      ],
      "stateMutability": "view",
      "type": "function"
    },
    {
      "inputs": [
        {
          "internalType": "uint256",
          "name": "tokenId",
          "type": "uint256"
        }
      ],
      "name": "tokenURI",
      "outputs": [
        {
          "internalType": "string",
          "name": "",
          "type": "string"
        }
      ],
      "stateMutability": "view",
      "type": "function"
    },
    {
      "inputs": [
        {
          "internalType": "uint256",
          "name": "id",
          "type": "uint256"
        }
      ],
      "name": "totalSupply",
      "outputs": [
        {
          "internalType": "uint256",
          "name": "",
          "type": "uint256"
        }
      ],
      "stateMutability": "view",
      "type": "function"
    },
    {
      "inputs": [
        {
          "internalType": "uint256",
          "name": "tokenId",
          "type": "uint256"
        }
      ],
      "name": "uri",
      "outputs": [
        {
          "internalType": "string",
          "name": "",
          "type": "string"
        }
      ],
      "stateMutability": "view",
      "type": "function"
    }
  ],
  "transactionHash": "0x72885b9a070ec3a7e38c8a2a5c9a576dc939654700807000944382c24b7d940d",
  "args": [
    "0x4803003e06Fe7Bc150cC8CB21D12750A1A1bA135",
    "0x4803003e06Fe7Bc150cC8CB21D12750A1A1bA135",
    "0x4803003e06Fe7Bc150cC8CB21D12750A1A1bA135",
    "ipfs://",
    "Rubyscore_Cetificate",
    "Rubyscore_Cetificate"
  ],
  "numDeployments": 2,
  "solcInputHash": "685370fd25903e4e6d517c8d48c5b5bd",
  "bytecode": "0x60a0604052600060809081526005906200001a90826200036d565b503480156200002857600080fd5b5060405162003042380380620030428339810160408190526200004b9162000505565b604080518082019091526007815266697066733a2f2f60c81b6020820152620000748162000204565b506001600160a01b038616620000c65760405162461bcd60e51b81526020600482015260126024820152715a65726f206164647265737320636865636b60701b60448201526064015b60405180910390fd5b6001600160a01b038516620001135760405162461bcd60e51b81526020600482015260126024820152715a65726f206164647265737320636865636b60701b6044820152606401620000bd565b6001600160a01b038416620001605760405162461bcd60e51b81526020600482015260126024820152715a65726f206164647265737320636865636b60701b6044820152606401620000bd565b60076200016e83826200036d565b5060086200017d82826200036d565b506200018b60008762000216565b620001a6600080516020620030228339815191523362000216565b620001c1600080516020620030228339815191528662000216565b620001ed7f9f2df0fed2c77648de5860a4cc508cd0818c85b8b8a1ab4ceeef8d981c8956a68562000216565b620001f883620002ba565b505050505050620005ce565b60026200021282826200036d565b5050565b60008281526003602090815260408083206001600160a01b038516845290915290205460ff16620002125760008281526003602090815260408083206001600160a01b03851684529091529020805460ff19166001179055620002763390565b6001600160a01b0316816001600160a01b0316837f2f8788117e7eff1d82e926ec794901d17c78024a50270940304540a733656f0d60405160405180910390a45050565b60056200021282826200036d565b634e487b7160e01b600052604160045260246000fd5b600181811c90821680620002f357607f821691505b6020821081036200031457634e487b7160e01b600052602260045260246000fd5b50919050565b601f8211156200036857600081815260208120601f850160051c81016020861015620003435750805b601f850160051c820191505b8181101562000364578281556001016200034f565b5050505b505050565b81516001600160401b03811115620003895762000389620002c8565b620003a1816200039a8454620002de565b846200031a565b602080601f831160018114620003d95760008415620003c05750858301515b600019600386901b1c1916600185901b17855562000364565b600085815260208120601f198616915b828110156200040a57888601518255948401946001909101908401620003e9565b5085821015620004295787850151600019600388901b60f8161c191681555b5050505050600190811b01905550565b80516001600160a01b03811681146200045157600080fd5b919050565b600082601f8301126200046857600080fd5b81516001600160401b0380821115620004855762000485620002c8565b604051601f8301601f19908116603f01168101908282118183101715620004b057620004b0620002c8565b81604052838152602092508683858801011115620004cd57600080fd5b600091505b83821015620004f15785820183015181830184015290820190620004d2565b600093810190920192909252949350505050565b60008060008060008060c087890312156200051f57600080fd5b6200052a8762000439565b95506200053a6020880162000439565b94506200054a6040880162000439565b60608801519094506001600160401b03808211156200056857600080fd5b620005768a838b0162000456565b945060808901519150808211156200058d57600080fd5b6200059b8a838b0162000456565b935060a0890151915080821115620005b257600080fd5b50620005c189828a0162000456565b9150509295509295509295565b612a4480620005de6000396000f3fe6080604052600436106101805760003560e01c806395d89b41116100d1578063c87b56dd1161008a578063e243bc9411610064578063e243bc9414610496578063e985e9c5146104a9578063f242432a146104f2578063f5b541a61461051257600080fd5b8063c87b56dd14610422578063d539139314610442578063d547741f1461047657600080fd5b806395d89b4114610378578063a14481941461038d578063a217fddf146103a0578063a22cb465146103b5578063ba772d8b146103d5578063bd85b039146103f557600080fd5b80632eb2c2d61161013e5780634e1273f4116101185780634e1273f4146102dc5780634f558e791461030957806355f804b31461033857806391d148541461035857600080fd5b80632eb2c2d61461027c5780632f2ff15d1461029c57806336568abe146102bc57600080fd5b8062fdd58e1461018557806301ffc9a7146101b857806306fdde03146101e85780630e89341c1461020a578063162094c41461022a578063248a9ca31461024c575b600080fd5b34801561019157600080fd5b506101a56101a0366004611ce0565b610534565b6040519081526020015b60405180910390f35b3480156101c457600080fd5b506101d86101d3366004611d20565b6105cd565b60405190151581526020016101af565b3480156101f457600080fd5b506101fd6105d8565b6040516101af9190611d8d565b34801561021657600080fd5b506101fd610225366004611da0565b610666565b34801561023657600080fd5b5061024a610245366004611e6e565b610671565b005b34801561025857600080fd5b506101a5610267366004611da0565b60009081526003602052604090206001015490565b34801561028857600080fd5b5061024a610297366004611f48565b6106d8565b3480156102a857600080fd5b5061024a6102b7366004611ff1565b610724565b3480156102c857600080fd5b5061024a6102d7366004611ff1565b61074e565b3480156102e857600080fd5b506102fc6102f736600461201d565b6107cc565b6040516101af9190612118565b34801561031557600080fd5b506101d8610324366004611da0565b600090815260046020526040902054151590565b34801561034457600080fd5b5061024a61035336600461212b565b6108f5565b34801561036457600080fd5b506101d8610373366004611ff1565b610958565b34801561038457600080fd5b506101fd610983565b61024a61039b366004611ce0565b610990565b3480156103ac57600080fd5b506101a5600081565b3480156103c157600080fd5b5061024a6103d0366004612167565b610a1c565b3480156103e157600080fd5b5061024a6103f03660046121ee565b610a27565b34801561040157600080fd5b506101a5610410366004611da0565b60009081526004602052604090205490565b34801561042e57600080fd5b506101fd61043d366004611da0565b610b1e565b34801561044e57600080fd5b506101a57f9f2df0fed2c77648de5860a4cc508cd0818c85b8b8a1ab4ceeef8d981c8956a681565b34801561048257600080fd5b5061024a610491366004611ff1565b610b29565b61024a6104a4366004612259565b610b4e565b3480156104b557600080fd5b506101d86104c436600461229c565b6001600160a01b03918216600090815260016020908152604080832093909416825291909152205460ff1690565b3480156104fe57600080fd5b5061024a61050d3660046122c6565b610bcb565b34801561051e57600080fd5b506101a56000805160206129ef83398151915281565b60006001600160a01b0383166105a45760405162461bcd60e51b815260206004820152602a60248201527f455243313135353a2061646472657373207a65726f206973206e6f742061207660448201526930b634b21037bbb732b960b11b60648201526084015b60405180910390fd5b506000818152602081815260408083206001600160a01b03861684529091529020545b92915050565b60006105c782610c10565b600780546105e59061232a565b80601f01602080910402602001604051908101604052809291908181526020018280546106119061232a565b801561065e5780601f106106335761010080835404028352916020019161065e565b820191906000526020600020905b81548152906001019060200180831161064157829003601f168201915b505050505081565b60606105c782610c35565b6000805160206129ef83398151915261068981610d15565b6106938383610d22565b816040516106a19190612364565b6040519081900381209084907fda84ca2183491f179a603e877b2cb058e42195041c2b9c53d746427e519a34df90600090a3505050565b6001600160a01b0385163314806106f457506106f485336104c4565b6107105760405162461bcd60e51b815260040161059b90612380565b61071d8585858585610d7f565b5050505050565b60008281526003602052604090206001015461073f81610d15565b6107498383610f21565b505050565b6001600160a01b03811633146107be5760405162461bcd60e51b815260206004820152602f60248201527f416363657373436f6e74726f6c3a2063616e206f6e6c792072656e6f756e636560448201526e103937b632b9903337b91039b2b63360891b606482015260840161059b565b6107c88282610fa7565b5050565b606081518351146108315760405162461bcd60e51b815260206004820152602960248201527f455243313135353a206163636f756e747320616e6420696473206c656e677468604482015268040dad2e6dac2e8c6d60bb1b606482015260840161059b565b600083516001600160401b0381111561084c5761084c611db9565b604051908082528060200260200182016040528015610875578160200160208202803683370190505b50905060005b84518110156108ed576108c0858281518110610899576108996123ce565b60200260200101518583815181106108b3576108b36123ce565b6020026020010151610534565b8282815181106108d2576108d26123ce565b60209081029190910101526108e6816123fa565b905061087b565b509392505050565b6000805160206129ef83398151915261090d81610d15565b6109168261100e565b816040516109249190612364565b604051908190038120907ff9c7803e94e0d3c02900d8a90893a6d5e90dd04d32a4cfe825520f82bf9f32f690600090a25050565b60009182526003602090815260408084206001600160a01b0393909316845291905290205460ff1690565b600880546105e59061232a565b7f9f2df0fed2c77648de5860a4cc508cd0818c85b8b8a1ab4ceeef8d981c8956a66109ba81610d15565b6109d483836040518060200160405280600081525061101a565b826001600160a01b03167f30385c845b448a36257a6a1716e6ad2e1bc2cbe333cde1e69fe849ad6511adfe83604051610a0f91815260200190565b60405180910390a2505050565b6107c833838361104e565b6000805160206129ef833981519152610a3f81610d15565b838214610a7f5760405162461bcd60e51b815260206004820152600e60248201526d496e76616c696420706172616d7360901b604482015260640161059b565b60005b84811015610b1657610b04868683818110610a9f57610a9f6123ce565b90506020020135858584818110610ab857610ab86123ce565b9050602002810190610aca9190612413565b8080601f01602080910402602001604051908101604052809392919081815260200183838082843760009201919091525061067192505050565b80610b0e816123fa565b915050610a82565b505050505050565b60606105c782610666565b600082815260036020526040902060010154610b4481610d15565b6107498383610fa7565b7f9f2df0fed2c77648de5860a4cc508cd0818c85b8b8a1ab4ceeef8d981c8956a6610b7881610d15565b610b9283836040518060200160405280600081525061112e565b826001600160a01b03167f0fccc44f8f4572066001d167eac735aa3f72308ef306fd3af1b0bb0b6a7ba90f83604051610a0f9190612118565b6001600160a01b038516331480610be75750610be785336104c4565b610c035760405162461bcd60e51b815260040161059b90612380565b61071d8585858585611201565b60006001600160e01b03198216637965db0b60e01b14806105c757506105c782611339565b600081815260066020526040812080546060929190610c539061232a565b80601f0160208091040260200160405190810160405280929190818152602001828054610c7f9061232a565b8015610ccc5780601f10610ca157610100808354040283529160200191610ccc565b820191906000526020600020905b815481529060010190602001808311610caf57829003601f168201915b505050505090506000815111610cea57610ce583611389565b610d0e565b600581604051602001610cfe929190612459565b6040516020818303038152906040525b9392505050565b610d1f813361141d565b50565b6000828152600660205260409020610d3a8282612526565b50817f6bb7ff708619ba0610cba295a58592e0451dee2622938c8755667688daf3529b610d6684610666565b604051610d739190611d8d565b60405180910390a25050565b8151835114610da05760405162461bcd60e51b815260040161059b906125e5565b6001600160a01b038416610dc65760405162461bcd60e51b815260040161059b9061262d565b33610dd5818787878787611476565b60005b8451811015610ebb576000858281518110610df557610df56123ce565b602002602001015190506000858381518110610e1357610e136123ce565b602090810291909101810151600084815280835260408082206001600160a01b038e168352909352919091205490915081811015610e635760405162461bcd60e51b815260040161059b90612672565b6000838152602081815260408083206001600160a01b038e8116855292528083208585039055908b16825281208054849290610ea09084906126bc565b9250508190555050505080610eb4906123fa565b9050610dd8565b50846001600160a01b0316866001600160a01b0316826001600160a01b03167f4a39dc06d4c0dbc64b70af90fd698a233a518aa5d07e595d983b8c0526c8f7fb8787604051610f0b9291906126cf565b60405180910390a4610b168187878787876114fa565b610f2b8282610958565b6107c85760008281526003602090815260408083206001600160a01b03851684529091529020805460ff19166001179055610f633390565b6001600160a01b0316816001600160a01b0316837f2f8788117e7eff1d82e926ec794901d17c78024a50270940304540a733656f0d60405160405180910390a45050565b610fb18282610958565b156107c85760008281526003602090815260408083206001600160a01b0385168085529252808320805460ff1916905551339285917ff6391f5c32d9c69d2a47ea670b442974b53935d1edc7fd64eb21e047a839171b9190a45050565b60056107c88282612526565b6110248383610534565b156110415760405162461bcd60e51b815260040161059b906126fd565b610749838360018461165e565b816001600160a01b0316836001600160a01b0316036110c15760405162461bcd60e51b815260206004820152602960248201527f455243313135353a2073657474696e6720617070726f76616c20737461747573604482015268103337b91039b2b63360b91b606482015260840161059b565b6001600160a01b03838116600081815260016020908152604080832094871680845294825291829020805460ff191686151590811790915591519182527f17307eab39ab6107e8899845ad3d59bd9653f200f220920489ca2b5937696c31910160405180910390a3505050565b600082516001600160401b0381111561114957611149611db9565b604051908082528060200260200182016040528015611172578160200160208202803683370190505b50905060005b83518160ff1610156111ee5761119d85858360ff16815181106108b3576108b36123ce565b156111ba5760405162461bcd60e51b815260040161059b906126fd565b6001828260ff16815181106111d1576111d16123ce565b6020908102919091010152806111e68161273e565b915050611178565b506111fb8484838561173e565b50505050565b6001600160a01b0384166112275760405162461bcd60e51b815260040161059b9061262d565b33600061123385611898565b9050600061124085611898565b9050611250838989858589611476565b6000868152602081815260408083206001600160a01b038c168452909152902054858110156112915760405162461bcd60e51b815260040161059b90612672565b6000878152602081815260408083206001600160a01b038d8116855292528083208985039055908a168252812080548892906112ce9084906126bc565b909155505060408051888152602081018890526001600160a01b03808b16928c821692918816917fc3d58168c5ae7397731d063d5bbf3d657854427343f4c083240f7aacaa2d0f62910160405180910390a461132e848a8a8a8a8a6118e3565b505050505050505050565b60006001600160e01b03198216636cdb3d1360e11b148061136a57506001600160e01b031982166303a24d0760e21b145b806105c757506301ffc9a760e01b6001600160e01b03198316146105c7565b6060600280546113989061232a565b80601f01602080910402602001604051908101604052809291908181526020018280546113c49061232a565b80156114115780601f106113e657610100808354040283529160200191611411565b820191906000526020600020905b8154815290600101906020018083116113f457829003601f168201915b50505050509050919050565b6114278282610958565b6107c8576114348161199e565b61143f8360206119b0565b60405160200161145092919061275d565b60408051601f198184030181529082905262461bcd60e51b825261059b91600401611d8d565b60005b83518110156114eb576001600160a01b038616156114d95760405162461bcd60e51b815260206004820152601760248201527f5468697320746f6b656e206f6e6c7920666f7220796f75000000000000000000604482015260640161059b565b806114e3816123fa565b915050611479565b50610b16868686868686611b4b565b6001600160a01b0384163b15610b165760405163bc197c8160e01b81526001600160a01b0385169063bc197c819061153e90899089908890889088906004016127d2565b6020604051808303816000875af1925050508015611579575060408051601f3d908101601f1916820190925261157691810190612830565b60015b6116255761158561284d565b806308c379a0036115be5750611599612869565b806115a457506115c0565b8060405162461bcd60e51b815260040161059b9190611d8d565b505b60405162461bcd60e51b815260206004820152603460248201527f455243313135353a207472616e7366657220746f206e6f6e2d455243313135356044820152732932b1b2b4bb32b91034b6b83632b6b2b73a32b960611b606482015260840161059b565b6001600160e01b0319811663bc197c8160e01b146116555760405162461bcd60e51b815260040161059b906128f2565b50505050505050565b6001600160a01b0384166116845760405162461bcd60e51b815260040161059b9061293a565b33600061169085611898565b9050600061169d85611898565b90506116ae83600089858589611476565b6000868152602081815260408083206001600160a01b038b168452909152812080548792906116de9084906126bc565b909155505060408051878152602081018790526001600160a01b03808a1692600092918716917fc3d58168c5ae7397731d063d5bbf3d657854427343f4c083240f7aacaa2d0f62910160405180910390a4611655836000898989896118e3565b6001600160a01b0384166117645760405162461bcd60e51b815260040161059b9061293a565b81518351146117855760405162461bcd60e51b815260040161059b906125e5565b3361179581600087878787611476565b60005b8451811015611830578381815181106117b3576117b36123ce565b60200260200101516000808784815181106117d0576117d06123ce565b602002602001015181526020019081526020016000206000886001600160a01b03166001600160a01b03168152602001908152602001600020600082825461181891906126bc565b90915550819050611828816123fa565b915050611798565b50846001600160a01b031660006001600160a01b0316826001600160a01b03167f4a39dc06d4c0dbc64b70af90fd698a233a518aa5d07e595d983b8c0526c8f7fb87876040516118819291906126cf565b60405180910390a461071d816000878787876114fa565b604080516001808252818301909252606091600091906020808301908036833701905050905082816000815181106118d2576118d26123ce565b602090810291909101015292915050565b6001600160a01b0384163b15610b165760405163f23a6e6160e01b81526001600160a01b0385169063f23a6e6190611927908990899088908890889060040161297b565b6020604051808303816000875af1925050508015611962575060408051601f3d908101601f1916820190925261195f91810190612830565b60015b61196e5761158561284d565b6001600160e01b0319811663f23a6e6160e01b146116555760405162461bcd60e51b815260040161059b906128f2565b60606105c76001600160a01b03831660145b606060006119bf8360026129c0565b6119ca9060026126bc565b6001600160401b038111156119e1576119e1611db9565b6040519080825280601f01601f191660200182016040528015611a0b576020820181803683370190505b509050600360fc1b81600081518110611a2657611a266123ce565b60200101906001600160f81b031916908160001a905350600f60fb1b81600181518110611a5557611a556123ce565b60200101906001600160f81b031916908160001a9053506000611a798460026129c0565b611a849060016126bc565b90505b6001811115611afc576f181899199a1a9b1b9c1cb0b131b232b360811b85600f1660108110611ab857611ab86123ce565b1a60f81b828281518110611ace57611ace6123ce565b60200101906001600160f81b031916908160001a90535060049490941c93611af5816129d7565b9050611a87565b508315610d0e5760405162461bcd60e51b815260206004820181905260248201527f537472696e67733a20686578206c656e67746820696e73756666696369656e74604482015260640161059b565b6001600160a01b038516611bd25760005b8351811015611bd057828181518110611b7757611b776123ce565b602002602001015160046000868481518110611b9557611b956123ce565b602002602001015181526020019081526020016000206000828254611bba91906126bc565b90915550611bc99050816123fa565b9050611b5c565b505b6001600160a01b038416610b165760005b8351811015611655576000848281518110611c0057611c006123ce565b602002602001015190506000848381518110611c1e57611c1e6123ce565b6020026020010151905060006004600084815260200190815260200160002054905081811015611ca15760405162461bcd60e51b815260206004820152602860248201527f455243313135353a206275726e20616d6f756e74206578636565647320746f74604482015267616c537570706c7960c01b606482015260840161059b565b60009283526004602052604090922091039055611cbd816123fa565b9050611be3565b80356001600160a01b0381168114611cdb57600080fd5b919050565b60008060408385031215611cf357600080fd5b611cfc83611cc4565b946020939093013593505050565b6001600160e01b031981168114610d1f57600080fd5b600060208284031215611d3257600080fd5b8135610d0e81611d0a565b60005b83811015611d58578181015183820152602001611d40565b50506000910152565b60008151808452611d79816020860160208601611d3d565b601f01601f19169290920160200192915050565b602081526000610d0e6020830184611d61565b600060208284031215611db257600080fd5b5035919050565b634e487b7160e01b600052604160045260246000fd5b601f8201601f191681016001600160401b0381118282101715611df457611df4611db9565b6040525050565b600082601f830112611e0c57600080fd5b81356001600160401b03811115611e2557611e25611db9565b604051611e3c601f8301601f191660200182611dcf565b818152846020838601011115611e5157600080fd5b816020850160208301376000918101602001919091529392505050565b60008060408385031215611e8157600080fd5b8235915060208301356001600160401b03811115611e9e57600080fd5b611eaa85828601611dfb565b9150509250929050565b60006001600160401b03821115611ecd57611ecd611db9565b5060051b60200190565b600082601f830112611ee857600080fd5b81356020611ef582611eb4565b604051611f028282611dcf565b83815260059390931b8501820192828101915086841115611f2257600080fd5b8286015b84811015611f3d5780358352918301918301611f26565b509695505050505050565b600080600080600060a08688031215611f6057600080fd5b611f6986611cc4565b9450611f7760208701611cc4565b935060408601356001600160401b0380821115611f9357600080fd5b611f9f89838a01611ed7565b94506060880135915080821115611fb557600080fd5b611fc189838a01611ed7565b93506080880135915080821115611fd757600080fd5b50611fe488828901611dfb565b9150509295509295909350565b6000806040838503121561200457600080fd5b8235915061201460208401611cc4565b90509250929050565b6000806040838503121561203057600080fd5b82356001600160401b038082111561204757600080fd5b818501915085601f83011261205b57600080fd5b8135602061206882611eb4565b6040516120758282611dcf565b83815260059390931b850182019282810191508984111561209557600080fd5b948201945b838610156120ba576120ab86611cc4565b8252948201949082019061209a565b965050860135925050808211156120d057600080fd5b50611eaa85828601611ed7565b600081518084526020808501945080840160005b8381101561210d578151875295820195908201906001016120f1565b509495945050505050565b602081526000610d0e60208301846120dd565b60006020828403121561213d57600080fd5b81356001600160401b0381111561215357600080fd5b61215f84828501611dfb565b949350505050565b6000806040838503121561217a57600080fd5b61218383611cc4565b91506020830135801515811461219857600080fd5b809150509250929050565b60008083601f8401126121b557600080fd5b5081356001600160401b038111156121cc57600080fd5b6020830191508360208260051b85010111156121e757600080fd5b9250929050565b6000806000806040858703121561220457600080fd5b84356001600160401b038082111561221b57600080fd5b612227888389016121a3565b9096509450602087013591508082111561224057600080fd5b5061224d878288016121a3565b95989497509550505050565b6000806040838503121561226c57600080fd5b61227583611cc4565b915060208301356001600160401b0381111561229057600080fd5b611eaa85828601611ed7565b600080604083850312156122af57600080fd5b6122b883611cc4565b915061201460208401611cc4565b600080600080600060a086880312156122de57600080fd5b6122e786611cc4565b94506122f560208701611cc4565b9350604086013592506060860135915060808601356001600160401b0381111561231e57600080fd5b611fe488828901611dfb565b600181811c9082168061233e57607f821691505b60208210810361235e57634e487b7160e01b600052602260045260246000fd5b50919050565b60008251612376818460208701611d3d565b9190910192915050565b6020808252602e908201527f455243313135353a2063616c6c6572206973206e6f7420746f6b656e206f776e60408201526d195c881bdc88185c1c1c9bdd995960921b606082015260800190565b634e487b7160e01b600052603260045260246000fd5b634e487b7160e01b600052601160045260246000fd5b60006001820161240c5761240c6123e4565b5060010190565b6000808335601e1984360301811261242a57600080fd5b8301803591506001600160401b0382111561244457600080fd5b6020019150368190038213156121e757600080fd5b60008084546124678161232a565b6001828116801561247f5760018114612494576124c3565b60ff19841687528215158302870194506124c3565b8860005260208060002060005b858110156124ba5781548a8201529084019082016124a1565b50505082870194505b5050505083516124d7818360208801611d3d565b01949350505050565b601f82111561074957600081815260208120601f850160051c810160208610156125075750805b601f850160051c820191505b81811015610b1657828155600101612513565b81516001600160401b0381111561253f5761253f611db9565b6125538161254d845461232a565b846124e0565b602080601f83116001811461258857600084156125705750858301515b600019600386901b1c1916600185901b178555610b16565b600085815260208120601f198616915b828110156125b757888601518255948401946001909101908401612598565b50858210156125d55787850151600019600388901b60f8161c191681555b5050505050600190811b01905550565b60208082526028908201527f455243313135353a2069647320616e6420616d6f756e7473206c656e677468206040820152670dad2e6dac2e8c6d60c31b606082015260800190565b60208082526025908201527f455243313135353a207472616e7366657220746f20746865207a65726f206164604082015264647265737360d81b606082015260800190565b6020808252602a908201527f455243313135353a20696e73756666696369656e742062616c616e636520666f60408201526939103a3930b739b332b960b11b606082015260800190565b808201808211156105c7576105c76123e4565b6040815260006126e260408301856120dd565b82810360208401526126f481856120dd565b95945050505050565b60208082526021908201527f596f7520616c72656164792068617665207468697320636572746966696361746040820152606560f81b606082015260800190565b600060ff821660ff8103612754576127546123e4565b60010192915050565b7f416363657373436f6e74726f6c3a206163636f756e7420000000000000000000815260008351612795816017850160208801611d3d565b7001034b99036b4b9b9b4b733903937b6329607d1b60179184019182015283516127c6816028840160208801611d3d565b01602801949350505050565b6001600160a01b0386811682528516602082015260a0604082018190526000906127fe908301866120dd565b828103606084015261281081866120dd565b905082810360808401526128248185611d61565b98975050505050505050565b60006020828403121561284257600080fd5b8151610d0e81611d0a565b600060033d11156128665760046000803e5060005160e01c5b90565b600060443d10156128775790565b6040516003193d81016004833e81513d6001600160401b0381602484011181841117156128a657505050505090565b82850191508151818111156128be5750505050505090565b843d87010160208285010111156128d85750505050505090565b6128e760208286010187611dcf565b509095945050505050565b60208082526028908201527f455243313135353a204552433131353552656365697665722072656a656374656040820152676420746f6b656e7360c01b606082015260800190565b60208082526021908201527f455243313135353a206d696e7420746f20746865207a65726f206164647265736040820152607360f81b606082015260800190565b6001600160a01b03868116825285166020820152604081018490526060810183905260a0608082018190526000906129b590830184611d61565b979650505050505050565b80820281158282048414176105c7576105c76123e4565b6000816129e6576129e66123e4565b50600019019056fe97667070c54ef182b0f5858b034beac1b6f3089aa2d3188bb1e8929f4fa9b929a264697066735822122080e3373ed21727819c869961123187d735c0daf42d819562c1b20bd1dce0a3f964736f6c6343000813003397667070c54ef182b0f5858b034beac1b6f3089aa2d3188bb1e8929f4fa9b929",
  "devdoc": {
    "details": "An ERC1155 token contract for minting and managing certificates with URI support.Rubyscore_Certificates can be minted by users with the MINTER_ROLE after proper authorization.Rubyscore_Certificates can have their URIs set by operators with the MINTER_ROLE.Rubyscore_Certificates can be safely transferred with restrictions on certain tokens.",
    "events": {
      "ApprovalForAll(address,address,bool)": {
        "details": "Emitted when `account` grants or revokes permission to `operator` to transfer their tokens, according to `approved`."
      },
      "BaseURISet(string)": {
        "details": "This event is triggered when the contract operator updates the base URI for retrieving metadata associated with tokens. The 'newBaseURI' parameter represents the updated base URI.",
        "params": {
          "newBaseURI": "The new base URI that will be used to construct token metadata URIs."
        }
      },
      "BatchMinted(address,uint256[])": {
        "details": "This event is emitted when new NFTs are created and assigned to a user.It includes the user's address and the IDs of the minted NFTs for transparency.",
        "params": {
          "nftIds": "NFT IDs that were minted.",
          "userAddress": "The address of the user receiving the NFTs."
        }
      },
      "Minted(address,uint256)": {
        "details": "This event is emitted when new NFTs are created and assigned to a user.It includes the user's address, and the ID of the minted NFT for transparency.",
        "params": {
          "nftId": "NFT IDs that were minted.",
          "userAddress": "The address of the user receiving the NFTs."
        }
      },
      "RoleAdminChanged(bytes32,bytes32,bytes32)": {
        "details": "Emitted when `newAdminRole` is set as ``role``'s admin role, replacing `previousAdminRole` `DEFAULT_ADMIN_ROLE` is the starting admin for all roles, despite {RoleAdminChanged} not being emitted signaling this. _Available since v3.1._"
      },
      "RoleGranted(bytes32,address,address)": {
        "details": "Emitted when `account` is granted `role`. `sender` is the account that originated the contract call, an admin role bearer except when using {AccessControl-_setupRole}."
      },
      "RoleRevoked(bytes32,address,address)": {
        "details": "Emitted when `account` is revoked `role`. `sender` is the account that originated the contract call:   - if using `revokeRole`, it is the admin role bearer   - if using `renounceRole`, it is the role bearer (i.e. `account`)"
      },
      "TokenURISet(uint256,string)": {
        "details": "This event is emitted when the URI for a token is modified, providing transparency when metadata URIs are changed for specific tokens.",
        "params": {
          "newTokenURI": "The new URI assigned to the token.",
          "tokenId": "The ID of the token for which the URI is updated."
        }
      },
      "TransferBatch(address,address,address,uint256[],uint256[])": {
        "details": "Equivalent to multiple {TransferSingle} events, where `operator`, `from` and `to` are the same for all transfers."
      },
      "TransferSingle(address,address,address,uint256,uint256)": {
        "details": "Emitted when `value` tokens of token type `id` are transferred from `from` to `to` by `operator`."
      },
      "URI(string,uint256)": {
        "details": "Emitted when the URI for token type `id` changes to `value`, if it is a non-programmatic URI. If an {URI} event was emitted for `id`, the standard https://eips.ethereum.org/EIPS/eip-1155#metadata-extensions[guarantees] that `value` will equal the value returned by {IERC1155MetadataURI-uri}."
      }
    },
    "kind": "dev",
    "methods": {
      "balanceOf(address,uint256)": {
        "details": "See {IERC1155-balanceOf}. Requirements: - `account` cannot be the zero address."
      },
      "balanceOfBatch(address[],uint256[])": {
        "details": "See {IERC1155-balanceOfBatch}. Requirements: - `accounts` and `ids` must have the same length."
      },
      "constructor": {
        "details": "Initializes the contract with roles and settings.It sets the base URI for token metadata to the provided `baseURI`.It grants the DEFAULT_ADMIN_ROLE, OPERATOR_ROLE, and MINTER_ROLE to the specified addresses.It also initializes the contract with EIP712 support and ERC1155 functionality.",
        "params": {
          "admin": "The address of the admin role, which has overall control.",
          "baseURI": "The base URI for token metadata.",
          "minter": "The address of the minter role, authorized to mint achievements and responsible for setting token URIs.",
          "operator": "The address of the operator role, responsible for unlock tokens and set base URI."
        }
      },
      "exists(uint256)": {
        "details": "Indicates whether any token exist with a given id, or not."
      },
      "getRoleAdmin(bytes32)": {
        "details": "Returns the admin role that controls `role`. See {grantRole} and {revokeRole}. To change a role's admin, use {_setRoleAdmin}."
      },
      "grantRole(bytes32,address)": {
        "details": "Grants `role` to `account`. If `account` had not been already granted `role`, emits a {RoleGranted} event. Requirements: - the caller must have ``role``'s admin role. May emit a {RoleGranted} event."
      },
      "hasRole(bytes32,address)": {
        "details": "Returns `true` if `account` has been granted `role`."
      },
      "isApprovedForAll(address,address)": {
        "details": "See {IERC1155-isApprovedForAll}."
      },
      "renounceRole(bytes32,address)": {
        "details": "Revokes `role` from the calling account. Roles are often managed via {grantRole} and {revokeRole}: this function's purpose is to provide a mechanism for accounts to lose their privileges if they are compromised (such as when a trusted device is misplaced). If the calling account had been revoked `role`, emits a {RoleRevoked} event. Requirements: - the caller must be `account`. May emit a {RoleRevoked} event."
      },
      "revokeRole(bytes32,address)": {
        "details": "Revokes `role` from `account`. If `account` had been granted `role`, emits a {RoleRevoked} event. Requirements: - the caller must have ``role``'s admin role. May emit a {RoleRevoked} event."
      },
      "safeBatchMint(address,uint256[])": {
        "details": "See {IRubyscore_Certificates}"
      },
      "safeBatchTransferFrom(address,address,uint256[],uint256[],bytes)": {
        "details": "See {IERC1155-safeBatchTransferFrom}."
      },
      "safeMint(address,uint256)": {
        "details": "See {IRubyscore_Certificates}"
      },
      "safeTransferFrom(address,address,uint256,uint256,bytes)": {
        "details": "See {IERC1155-safeTransferFrom}."
      },
      "setApprovalForAll(address,bool)": {
        "details": "See {IERC1155-setApprovalForAll}."
      },
      "setBaseURI(string)": {
        "details": "See {IRubyscore_Certificates}"
      },
      "setBatchTokenURI(uint256[],string[])": {
        "details": "See {IRubyscore_Certificates}"
      },
      "setTokenURI(uint256,string)": {
        "details": "See {IRubyscore_Certificates}"
      },
      "supportsInterface(bytes4)": {
        "details": "See {IRubyscore_Certificates}"
      },
      "tokenURI(uint256)": {
        "details": "See {IRubyscore_Certificates}"
      },
      "totalSupply(uint256)": {
        "details": "Total amount of tokens in with a given id."
      },
      "uri(uint256)": {
        "details": "See {IRubyscore_Certificates}"
      }
    },
    "stateVariables": {
      "name": {
        "return": "Token name.",
        "returns": {
          "_0": "Token name."
        }
      },
      "symbol": {
        "return": "Token symbol.",
        "returns": {
          "_0": "Token symbol."
        }
      }
    },
    "title": "Rubyscore_Certificates",
    "version": 1
  },
  "userdoc": {
    "events": {
      "BaseURISet(string)": {
        "notice": "Emitted when the base URI for token metadata is updated."
      },
      "BatchMinted(address,uint256[])": {
        "notice": "Emitted when NFTs are minted for a user."
      },
      "Minted(address,uint256)": {
        "notice": "Emitted when NFTs are minted for a user."
      },
      "TokenURISet(uint256,string)": {
        "notice": "Emitted when the URI for a specific token is updated."
      }
    },
    "kind": "user",
    "methods": {
      "constructor": {
        "notice": "Constructor for the Rubyscore_Achievement contract."
      },
      "name()": {
        "notice": "Get token name."
      },
      "symbol()": {
        "notice": "Get token symbol."
      }
    },
    "version": 1
  },
  "storageLayout": {
    "storage": [
      {
        "astId": 725,
        "contract": "contracts/certificates/Rubyscore_Certificates.sol:Rubyscore_Certificates",
        "label": "_balances",
        "offset": 0,
        "slot": "0",
        "type": "t_mapping(t_uint256,t_mapping(t_address,t_uint256))"
      },
      {
        "astId": 731,
        "contract": "contracts/certificates/Rubyscore_Certificates.sol:Rubyscore_Certificates",
        "label": "_operatorApprovals",
        "offset": 0,
        "slot": "1",
        "type": "t_mapping(t_address,t_mapping(t_address,t_bool))"
      },
      {
        "astId": 733,
        "contract": "contracts/certificates/Rubyscore_Certificates.sol:Rubyscore_Certificates",
        "label": "_uri",
        "offset": 0,
        "slot": "2",
        "type": "t_string_storage"
      },
      {
        "astId": 24,
        "contract": "contracts/certificates/Rubyscore_Certificates.sol:Rubyscore_Certificates",
        "label": "_roles",
        "offset": 0,
        "slot": "3",
        "type": "t_mapping(t_bytes32,t_struct(RoleData)19_storage)"
      },
      {
        "astId": 2095,
        "contract": "contracts/certificates/Rubyscore_Certificates.sol:Rubyscore_Certificates",
        "label": "_totalSupply",
        "offset": 0,
        "slot": "4",
        "type": "t_mapping(t_uint256,t_uint256)"
      },
      {
        "astId": 2255,
        "contract": "contracts/certificates/Rubyscore_Certificates.sol:Rubyscore_Certificates",
        "label": "_baseURI",
        "offset": 0,
        "slot": "5",
        "type": "t_string_storage"
      },
      {
        "astId": 2259,
        "contract": "contracts/certificates/Rubyscore_Certificates.sol:Rubyscore_Certificates",
        "label": "_tokenURIs",
        "offset": 0,
        "slot": "6",
        "type": "t_mapping(t_uint256,t_string_storage)"
      },
      {
        "astId": 8299,
        "contract": "contracts/certificates/Rubyscore_Certificates.sol:Rubyscore_Certificates",
        "label": "name",
        "offset": 0,
        "slot": "7",
        "type": "t_string_storage"
      },
      {
        "astId": 8301,
        "contract": "contracts/certificates/Rubyscore_Certificates.sol:Rubyscore_Certificates",
        "label": "symbol",
        "offset": 0,
        "slot": "8",
        "type": "t_string_storage"
      }
    ],
    "types": {
      "t_address": {
        "encoding": "inplace",
        "label": "address",
        "numberOfBytes": "20"
      },
      "t_bool": {
        "encoding": "inplace",
        "label": "bool",
        "numberOfBytes": "1"
      },
      "t_bytes32": {
        "encoding": "inplace",
        "label": "bytes32",
        "numberOfBytes": "32"
      },
      "t_mapping(t_address,t_bool)": {
        "encoding": "mapping",
        "key": "t_address",
        "label": "mapping(address => bool)",
        "numberOfBytes": "32",
        "value": "t_bool"
      },
      "t_mapping(t_address,t_mapping(t_address,t_bool))": {
        "encoding": "mapping",
        "key": "t_address",
        "label": "mapping(address => mapping(address => bool))",
        "numberOfBytes": "32",
        "value": "t_mapping(t_address,t_bool)"
      },
      "t_mapping(t_address,t_uint256)": {
        "encoding": "mapping",
        "key": "t_address",
        "label": "mapping(address => uint256)",
        "numberOfBytes": "32",
        "value": "t_uint256"
      },
      "t_mapping(t_bytes32,t_struct(RoleData)19_storage)": {
        "encoding": "mapping",
        "key": "t_bytes32",
        "label": "mapping(bytes32 => struct AccessControl.RoleData)",
        "numberOfBytes": "32",
        "value": "t_struct(RoleData)19_storage"
      },
      "t_mapping(t_uint256,t_mapping(t_address,t_uint256))": {
        "encoding": "mapping",
        "key": "t_uint256",
        "label": "mapping(uint256 => mapping(address => uint256))",
        "numberOfBytes": "32",
        "value": "t_mapping(t_address,t_uint256)"
      },
      "t_mapping(t_uint256,t_string_storage)": {
        "encoding": "mapping",
        "key": "t_uint256",
        "label": "mapping(uint256 => string)",
        "numberOfBytes": "32",
        "value": "t_string_storage"
      },
      "t_mapping(t_uint256,t_uint256)": {
        "encoding": "mapping",
        "key": "t_uint256",
        "label": "mapping(uint256 => uint256)",
        "numberOfBytes": "32",
        "value": "t_uint256"
      },
      "t_string_storage": {
        "encoding": "bytes",
        "label": "string",
        "numberOfBytes": "32"
      },
      "t_struct(RoleData)19_storage": {
        "encoding": "inplace",
        "label": "struct AccessControl.RoleData",
        "members": [
          {
            "astId": 16,
            "contract": "contracts/certificates/Rubyscore_Certificates.sol:Rubyscore_Certificates",
            "label": "members",
            "offset": 0,
            "slot": "0",
            "type": "t_mapping(t_address,t_bool)"
          },
          {
            "astId": 18,
            "contract": "contracts/certificates/Rubyscore_Certificates.sol:Rubyscore_Certificates",
            "label": "adminRole",
            "offset": 0,
            "slot": "1",
            "type": "t_bytes32"
          }
        ],
        "numberOfBytes": "64"
      },
      "t_uint256": {
        "encoding": "inplace",
        "label": "uint256",
        "numberOfBytes": "32"
      }
    }
  }
}