{
  "address": "0xDC3D8318Fbaec2de49281843f5bba22e78338146",
  "abi": [
    {
      "inputs": [
        {
          "internalType": "address",
          "name": "admin",
          "type": "address"
        },
        {
          "internalType": "address",
          "name": "operator",
          "type": "address"
        }
      ],
      "stateMutability": "nonpayable",
      "type": "constructor"
    },
    {
      "inputs": [],
      "name": "AccessControlBadConfirmation",
      "type": "error"
    },
    {
      "inputs": [
        {
          "internalType": "address",
          "name": "account",
          "type": "address"
        },
        {
          "internalType": "bytes32",
          "name": "neededRole",
          "type": "bytes32"
        }
      ],
      "name": "AccessControlUnauthorizedAccount",
      "type": "error"
    },
    {
      "inputs": [
        {
          "internalType": "address",
          "name": "sender",
          "type": "address"
        },
        {
          "internalType": "uint256",
          "name": "tokenId",
          "type": "uint256"
        },
        {
          "internalType": "address",
          "name": "owner",
          "type": "address"
        }
      ],
      "name": "ERC721IncorrectOwner",
      "type": "error"
    },
    {
      "inputs": [
        {
          "internalType": "address",
          "name": "operator",
          "type": "address"
        },
        {
          "internalType": "uint256",
          "name": "tokenId",
          "type": "uint256"
        }
      ],
      "name": "ERC721InsufficientApproval",
      "type": "error"
    },
    {
      "inputs": [
        {
          "internalType": "address",
          "name": "approver",
          "type": "address"
        }
      ],
      "name": "ERC721InvalidApprover",
      "type": "error"
    },
    {
      "inputs": [
        {
          "internalType": "address",
          "name": "operator",
          "type": "address"
        }
      ],
      "name": "ERC721InvalidOperator",
      "type": "error"
    },
    {
      "inputs": [
        {
          "internalType": "address",
          "name": "owner",
          "type": "address"
        }
      ],
      "name": "ERC721InvalidOwner",
      "type": "error"
    },
    {
      "inputs": [
        {
          "internalType": "address",
          "name": "receiver",
          "type": "address"
        }
      ],
      "name": "ERC721InvalidReceiver",
      "type": "error"
    },
    {
      "inputs": [
        {
          "internalType": "address",
          "name": "sender",
          "type": "address"
        }
      ],
      "name": "ERC721InvalidSender",
      "type": "error"
    },
    {
      "inputs": [
        {
          "internalType": "uint256",
          "name": "tokenId",
          "type": "uint256"
        }
      ],
      "name": "ERC721NonexistentToken",
      "type": "error"
    },
    {
      "anonymous": false,
      "inputs": [
        {
          "indexed": true,
          "internalType": "address",
          "name": "owner",
          "type": "address"
        },
        {
          "indexed": true,
          "internalType": "address",
          "name": "approved",
          "type": "address"
        },
        {
          "indexed": true,
          "internalType": "uint256",
          "name": "tokenId",
          "type": "uint256"
        }
      ],
      "name": "Approval",
      "type": "event"
    },
    {
      "anonymous": false,
      "inputs": [
        {
          "indexed": true,
          "internalType": "address",
          "name": "owner",
          "type": "address"
        },
        {
          "indexed": true,
          "internalType": "address",
          "name": "operator",
          "type": "address"
        },
        {
          "indexed": false,
          "internalType": "bool",
          "name": "approved",
          "type": "bool"
        }
      ],
      "name": "ApprovalForAll",
      "type": "event"
    },
    {
      "anonymous": false,
      "inputs": [
        {
          "indexed": true,
          "internalType": "string",
          "name": "newBaseExtension",
          "type": "string"
        }
      ],
      "name": "ExtensionUpdated",
      "type": "event"
    },
    {
      "anonymous": false,
      "inputs": [
        {
          "indexed": true,
          "internalType": "address",
          "name": "account",
          "type": "address"
        },
        {
          "indexed": true,
          "internalType": "uint256",
          "name": "tokenId",
          "type": "uint256"
        },
        {
          "indexed": false,
          "internalType": "string",
          "name": "name",
          "type": "string"
        },
        {
          "indexed": true,
          "internalType": "bool",
          "name": "premium",
          "type": "bool"
        }
      ],
      "name": "NameClaimed",
      "type": "event"
    },
    {
      "anonymous": false,
      "inputs": [
        {
          "indexed": false,
          "internalType": "uint256",
          "name": "newPremiumPrice",
          "type": "uint256"
        }
      ],
      "name": "PremiumPriceUpdated",
      "type": "event"
    },
    {
      "anonymous": false,
      "inputs": [
        {
          "indexed": true,
          "internalType": "bytes32",
          "name": "role",
          "type": "bytes32"
        },
        {
          "indexed": true,
          "internalType": "bytes32",
          "name": "previousAdminRole",
          "type": "bytes32"
        },
        {
          "indexed": true,
          "internalType": "bytes32",
          "name": "newAdminRole",
          "type": "bytes32"
        }
      ],
      "name": "RoleAdminChanged",
      "type": "event"
    },
    {
      "anonymous": false,
      "inputs": [
        {
          "indexed": true,
          "internalType": "bytes32",
          "name": "role",
          "type": "bytes32"
        },
        {
          "indexed": true,
          "internalType": "address",
          "name": "account",
          "type": "address"
        },
        {
          "indexed": true,
          "internalType": "address",
          "name": "sender",
          "type": "address"
        }
      ],
      "name": "RoleGranted",
      "type": "event"
    },
    {
      "anonymous": false,
      "inputs": [
        {
          "indexed": true,
          "internalType": "bytes32",
          "name": "role",
          "type": "bytes32"
        },
        {
          "indexed": true,
          "internalType": "address",
          "name": "account",
          "type": "address"
        },
        {
          "indexed": true,
          "internalType": "address",
          "name": "sender",
          "type": "address"
        }
      ],
      "name": "RoleRevoked",
      "type": "event"
    },
    {
      "anonymous": false,
      "inputs": [
        {
          "indexed": true,
          "internalType": "address",
          "name": "from",
          "type": "address"
        },
        {
          "indexed": true,
          "internalType": "address",
          "name": "to",
          "type": "address"
        },
        {
          "indexed": true,
          "internalType": "uint256",
          "name": "tokenId",
          "type": "uint256"
        }
      ],
      "name": "Transfer",
      "type": "event"
    },
    {
      "anonymous": false,
      "inputs": [
        {
          "indexed": true,
          "internalType": "string",
          "name": "newBaseURI",
          "type": "string"
        }
      ],
      "name": "URIUpdated",
      "type": "event"
    },
    {
      "anonymous": false,
      "inputs": [
        {
          "indexed": false,
          "internalType": "uint256",
          "name": "amount",
          "type": "uint256"
        }
      ],
      "name": "Withdrawed",
      "type": "event"
    },
    {
      "inputs": [],
      "name": "DEFAULT_ADMIN_ROLE",
      "outputs": [
        {
          "internalType": "bytes32",
          "name": "",
          "type": "bytes32"
        }
      ],
      "stateMutability": "view",
      "type": "function"
    },
    {
      "inputs": [],
      "name": "OPERATOR_ROLE",
      "outputs": [
        {
          "internalType": "bytes32",
          "name": "",
          "type": "bytes32"
        }
      ],
      "stateMutability": "view",
      "type": "function"
    },
    {
      "inputs": [
        {
          "internalType": "address",
          "name": "to",
          "type": "address"
        },
        {
          "internalType": "uint256",
          "name": "tokenId",
          "type": "uint256"
        }
      ],
      "name": "approve",
      "outputs": [],
      "stateMutability": "nonpayable",
      "type": "function"
    },
    {
      "inputs": [
        {
          "internalType": "address",
          "name": "owner",
          "type": "address"
        }
      ],
      "name": "balanceOf",
      "outputs": [
        {
          "internalType": "uint256",
          "name": "",
          "type": "uint256"
        }
      ],
      "stateMutability": "view",
      "type": "function"
    },
    {
      "inputs": [
        {
          "internalType": "string",
          "name": "name",
          "type": "string"
        }
      ],
      "name": "checkName",
      "outputs": [
        {
          "internalType": "bool",
          "name": "",
          "type": "bool"
        },
        {
          "internalType": "uint256",
          "name": "",
          "type": "uint256"
        }
      ],
      "stateMutability": "view",
      "type": "function"
    },
    {
      "inputs": [
        {
          "internalType": "string",
          "name": "name",
          "type": "string"
        }
      ],
      "name": "claimName",
      "outputs": [
        {
          "internalType": "uint256",
          "name": "tokenId",
          "type": "uint256"
        }
      ],
      "stateMutability": "payable",
      "type": "function"
    },
    {
      "inputs": [
        {
          "internalType": "uint256",
          "name": "tokenId",
          "type": "uint256"
        }
      ],
      "name": "exists",
      "outputs": [
        {
          "internalType": "bool",
          "name": "",
          "type": "bool"
        }
      ],
      "stateMutability": "view",
      "type": "function"
    },
    {
      "inputs": [
        {
          "internalType": "uint256",
          "name": "tokenId",
          "type": "uint256"
        }
      ],
      "name": "getApproved",
      "outputs": [
        {
          "internalType": "address",
          "name": "",
          "type": "address"
        }
      ],
      "stateMutability": "view",
      "type": "function"
    },
    {
      "inputs": [],
      "name": "getBaseExtension",
      "outputs": [
        {
          "internalType": "string",
          "name": "",
          "type": "string"
        }
      ],
      "stateMutability": "view",
      "type": "function"
    },
    {
      "inputs": [],
      "name": "getBaseURI",
      "outputs": [
        {
          "internalType": "string",
          "name": "",
          "type": "string"
        }
      ],
      "stateMutability": "view",
      "type": "function"
    },
    {
      "inputs": [
        {
          "internalType": "string",
          "name": "name",
          "type": "string"
        }
      ],
      "name": "getIdByName",
      "outputs": [
        {
          "internalType": "uint256",
          "name": "",
          "type": "uint256"
        }
      ],
      "stateMutability": "pure",
      "type": "function"
    },
    {
      "inputs": [
        {
          "internalType": "address",
          "name": "userAddress",
          "type": "address"
        }
      ],
      "name": "getIdByOwner",
      "outputs": [
        {
          "internalType": "uint256",
          "name": "",
          "type": "uint256"
        }
      ],
      "stateMutability": "view",
      "type": "function"
    },
    {
      "inputs": [
        {
          "internalType": "uint256",
          "name": "id",
          "type": "uint256"
        }
      ],
      "name": "getNameById",
      "outputs": [
        {
          "internalType": "string",
          "name": "",
          "type": "string"
        }
      ],
      "stateMutability": "view",
      "type": "function"
    },
    {
      "inputs": [
        {
          "internalType": "address",
          "name": "userAddress",
          "type": "address"
        }
      ],
      "name": "getNameByOwner",
      "outputs": [
        {
          "internalType": "string",
          "name": "",
          "type": "string"
        }
      ],
      "stateMutability": "view",
      "type": "function"
    },
    {
      "inputs": [
        {
          "internalType": "string",
          "name": "name",
          "type": "string"
        }
      ],
      "name": "getOwnerByName",
      "outputs": [
        {
          "internalType": "address",
          "name": "",
          "type": "address"
        }
      ],
      "stateMutability": "view",
      "type": "function"
    },
    {
      "inputs": [],
      "name": "getPremiumPrice",
      "outputs": [
        {
          "internalType": "uint256",
          "name": "",
          "type": "uint256"
        }
      ],
      "stateMutability": "view",
      "type": "function"
    },
    {
      "inputs": [
        {
          "internalType": "address",
          "name": "userAddress",
          "type": "address"
        }
      ],
      "name": "getPremiumStatus",
      "outputs": [
        {
          "internalType": "bool",
          "name": "",
          "type": "bool"
        }
      ],
      "stateMutability": "view",
      "type": "function"
    },
    {
      "inputs": [
        {
          "internalType": "bytes32",
          "name": "role",
          "type": "bytes32"
        }
      ],
      "name": "getRoleAdmin",
      "outputs": [
        {
          "internalType": "bytes32",
          "name": "",
          "type": "bytes32"
        }
      ],
      "stateMutability": "view",
      "type": "function"
    },
    {
      "inputs": [
        {
          "internalType": "bytes32",
          "name": "role",
          "type": "bytes32"
        },
        {
          "internalType": "address",
          "name": "account",
          "type": "address"
        }
      ],
      "name": "grantRole",
      "outputs": [],
      "stateMutability": "nonpayable",
      "type": "function"
    },
    {
      "inputs": [
        {
          "internalType": "address",
          "name": "_user",
          "type": "address"
        }
      ],
      "name": "hasName",
      "outputs": [
        {
          "internalType": "bool",
          "name": "",
          "type": "bool"
        }
      ],
      "stateMutability": "view",
      "type": "function"
    },
    {
      "inputs": [
        {
          "internalType": "bytes32",
          "name": "role",
          "type": "bytes32"
        },
        {
          "internalType": "address",
          "name": "account",
          "type": "address"
        }
      ],
      "name": "hasRole",
      "outputs": [
        {
          "internalType": "bool",
          "name": "",
          "type": "bool"
        }
      ],
      "stateMutability": "view",
      "type": "function"
    },
    {
      "inputs": [
        {
          "internalType": "address",
          "name": "owner",
          "type": "address"
        },
        {
          "internalType": "address",
          "name": "operator",
          "type": "address"
        }
      ],
      "name": "isApprovedForAll",
      "outputs": [
        {
          "internalType": "bool",
          "name": "",
          "type": "bool"
        }
      ],
      "stateMutability": "view",
      "type": "function"
    },
    {
      "inputs": [],
      "name": "name",
      "outputs": [
        {
          "internalType": "string",
          "name": "",
          "type": "string"
        }
      ],
      "stateMutability": "view",
      "type": "function"
    },
    {
      "inputs": [
        {
          "internalType": "uint256",
          "name": "tokenId",
          "type": "uint256"
        }
      ],
      "name": "ownerOf",
      "outputs": [
        {
          "internalType": "address",
          "name": "",
          "type": "address"
        }
      ],
      "stateMutability": "view",
      "type": "function"
    },
    {
      "inputs": [
        {
          "internalType": "bytes32",
          "name": "role",
          "type": "bytes32"
        },
        {
          "internalType": "address",
          "name": "callerConfirmation",
          "type": "address"
        }
      ],
      "name": "renounceRole",
      "outputs": [],
      "stateMutability": "nonpayable",
      "type": "function"
    },
    {
      "inputs": [
        {
          "internalType": "bytes32",
          "name": "role",
          "type": "bytes32"
        },
        {
          "internalType": "address",
          "name": "account",
          "type": "address"
        }
      ],
      "name": "revokeRole",
      "outputs": [],
      "stateMutability": "nonpayable",
      "type": "function"
    },
    {
      "inputs": [
        {
          "internalType": "address",
          "name": "from",
          "type": "address"
        },
        {
          "internalType": "address",
          "name": "to",
          "type": "address"
        },
        {
          "internalType": "uint256",
          "name": "tokenId",
          "type": "uint256"
        }
      ],
      "name": "safeTransferFrom",
      "outputs": [],
      "stateMutability": "nonpayable",
      "type": "function"
    },
    {
      "inputs": [
        {
          "internalType": "address",
          "name": "from",
          "type": "address"
        },
        {
          "internalType": "address",
          "name": "to",
          "type": "address"
        },
        {
          "internalType": "uint256",
          "name": "tokenId",
          "type": "uint256"
        },
        {
          "internalType": "bytes",
          "name": "data",
          "type": "bytes"
        }
      ],
      "name": "safeTransferFrom",
      "outputs": [],
      "stateMutability": "nonpayable",
      "type": "function"
    },
    {
      "inputs": [
        {
          "internalType": "address",
          "name": "operator",
          "type": "address"
        },
        {
          "internalType": "bool",
          "name": "approved",
          "type": "bool"
        }
      ],
      "name": "setApprovalForAll",
      "outputs": [],
      "stateMutability": "nonpayable",
      "type": "function"
    },
    {
      "inputs": [
        {
          "internalType": "bytes4",
          "name": "interfaceId",
          "type": "bytes4"
        }
      ],
      "name": "supportsInterface",
      "outputs": [
        {
          "internalType": "bool",
          "name": "",
          "type": "bool"
        }
      ],
      "stateMutability": "view",
      "type": "function"
    },
    {
      "inputs": [],
      "name": "symbol",
      "outputs": [
        {
          "internalType": "string",
          "name": "",
          "type": "string"
        }
      ],
      "stateMutability": "view",
      "type": "function"
    },
    {
      "inputs": [
        {
          "internalType": "uint256",
          "name": "tokenId",
          "type": "uint256"
        }
      ],
      "name": "tokenURI",
      "outputs": [
        {
          "internalType": "string",
          "name": "",
          "type": "string"
        }
      ],
      "stateMutability": "view",
      "type": "function"
    },
    {
      "inputs": [
        {
          "internalType": "address",
          "name": "from",
          "type": "address"
        },
        {
          "internalType": "address",
          "name": "to",
          "type": "address"
        },
        {
          "internalType": "uint256",
          "name": "tokenId",
          "type": "uint256"
        }
      ],
      "name": "transferFrom",
      "outputs": [],
      "stateMutability": "nonpayable",
      "type": "function"
    },
    {
      "inputs": [
        {
          "internalType": "string",
          "name": "newBaseExtension",
          "type": "string"
        }
      ],
      "name": "updateBaseExtension",
      "outputs": [],
      "stateMutability": "nonpayable",
      "type": "function"
    },
    {
      "inputs": [
        {
          "internalType": "string",
          "name": "newBaseURI",
          "type": "string"
        }
      ],
      "name": "updateBaseURI",
      "outputs": [],
      "stateMutability": "nonpayable",
      "type": "function"
    },
    {
      "inputs": [
        {
          "internalType": "uint256",
          "name": "newPremiumPrice",
          "type": "uint256"
        }
      ],
      "name": "updatePremiumPrice",
      "outputs": [],
      "stateMutability": "nonpayable",
      "type": "function"
    },
    {
      "inputs": [],
      "name": "withdraw",
      "outputs": [],
      "stateMutability": "nonpayable",
      "type": "function"
    }
  ],
  "transactionHash": "0x91ba82708166b2f13e743755cf8dfddaeb93b48bed7f20caee5950130bb34201",
  "args": [
    "0x0d0D5Ff3cFeF8B7B2b1cAC6B6C27Fd0846c09361",
    "0x381c031bAA5995D0Cc52386508050Ac947780815"
  ],
  "numDeployments": 1,
  "solcInputHash": "c569a50ea43f1b4f55b85829c9e612e2",
  "bytecode": "0x60e0604052602560808181529062002dde60a039600790620000229082620002f2565b503480156200003057600080fd5b5060405162002e0338038062002e038339810160408190526200005391620003db565b6040805180820182526011808252705275627973636f72655f50726f66696c6560781b60208084018290528451808601909552918452908301529060006200009c8382620002f2565b506001620000ab8282620002f2565b5050506001600160a01b038216620000ff5760405162461bcd60e51b81526020600482015260126024820152715a65726f206164647265737320636865636b60701b60448201526064015b60405180910390fd5b6001600160a01b0381166200014c5760405162461bcd60e51b81526020600482015260126024820152715a65726f206164647265737320636865636b60701b6044820152606401620000f6565b620001596000836200019a565b506200017560008051602062002dbe833981519152336200019a565b506200019160008051602062002dbe833981519152826200019a565b50505062000413565b60008281526006602090815260408083206001600160a01b038516845290915281205460ff16620002435760008381526006602090815260408083206001600160a01b03861684529091529020805460ff19166001179055620001fa3390565b6001600160a01b0316826001600160a01b0316847f2f8788117e7eff1d82e926ec794901d17c78024a50270940304540a733656f0d60405160405180910390a450600162000247565b5060005b92915050565b634e487b7160e01b600052604160045260246000fd5b600181811c908216806200027857607f821691505b6020821081036200029957634e487b7160e01b600052602260045260246000fd5b50919050565b601f821115620002ed57600081815260208120601f850160051c81016020861015620002c85750805b601f850160051c820191505b81811015620002e957828155600101620002d4565b5050505b505050565b81516001600160401b038111156200030e576200030e6200024d565b62000326816200031f845462000263565b846200029f565b602080601f8311600181146200035e5760008415620003455750858301515b600019600386901b1c1916600185901b178555620002e9565b600085815260208120601f198616915b828110156200038f578886015182559484019460019091019084016200036e565b5085821015620003ae5787850151600019600388901b60f8161c191681555b5050505050600190811b01905550565b80516001600160a01b0381168114620003d657600080fd5b919050565b60008060408385031215620003ef57600080fd5b620003fa83620003be565b91506200040a60208401620003be565b90509250929050565b61299b80620004236000396000f3fe60806040526004361061021a5760003560e01c806354c25e4b1161012357806395d89b41116100ab578063c87b56dd1161006f578063c87b56dd14610667578063d547741f14610687578063e6be48f1146106a7578063e985e9c5146106c7578063f5b541a6146106e757600080fd5b806395d89b41146105dd578063a217fddf146105f2578063a22cb46514610607578063aeda352b14610627578063b88d4fde1461064757600080fd5b8063714c5398116100f2578063714c53981461052f578063761019711461054457806381d78a901461057d57806391d148541461059d578063931688cb146105bd57600080fd5b806354c25e4b146104bc5780636352211e146104cf578063674ddb08146104ef57806370a082311461050f57600080fd5b8063248a9ca3116101a65780633ccfd60b116101755780633ccfd60b1461041a57806342842e0e1461042f5780634695bfe61461044f57806349394b0d1461046f5780634f558e791461048457600080fd5b8063248a9ca31461038a5780632f2ff15d146103ba5780633232c10b146103da57806336568abe146103fa57600080fd5b8063095ea7b3116101ed578063095ea7b3146102c357806310b50626146102e55780631367944b146103135780631400d1e41461033357806323b872dd1461036a57600080fd5b806301ffc9a71461021f578063022503071461025457806306fdde0314610276578063081812fc1461028b575b600080fd5b34801561022b57600080fd5b5061023f61023a366004612184565b610709565b60405190151581526020015b60405180910390f35b34801561026057600080fd5b5061026961071a565b60405161024b91906121f1565b34801561028257600080fd5b506102696107ac565b34801561029757600080fd5b506102ab6102a6366004612204565b6107bb565b6040516001600160a01b03909116815260200161024b565b3480156102cf57600080fd5b506102e36102de366004612239565b6107e4565b005b3480156102f157600080fd5b50610305610300366004612263565b6107f3565b60405190815260200161024b565b34801561031f57600080fd5b5061030561032e36600461227e565b61090b565b34801561033f57600080fd5b5061035361034e36600461227e565b61094c565b60408051921515835260208301919091520161024b565b34801561037657600080fd5b506102e36103853660046122f0565b610a46565b34801561039657600080fd5b506103056103a5366004612204565b60009081526006602052604090206001015490565b3480156103c657600080fd5b506102e36103d536600461232c565b610ad1565b3480156103e657600080fd5b506102e36103f53660046123e4565b610af6565b34801561040657600080fd5b506102e361041536600461232c565b610b5d565b34801561042657600080fd5b506102e3610b95565b34801561043b57600080fd5b506102e361044a3660046122f0565b610cb5565b34801561045b57600080fd5b506102ab61046a36600461227e565b610cd0565b34801561047b57600080fd5b50600954610305565b34801561049057600080fd5b5061023f61049f366004612204565b6000908152600260205260409020546001600160a01b0316151590565b6103056104ca36600461227e565b610d4c565b3480156104db57600080fd5b506102ab6104ea366004612204565b610fbd565b3480156104fb57600080fd5b5061026961050a366004612263565b610fc8565b34801561051b57600080fd5b5061030561052a366004612263565b6110c6565b34801561053b57600080fd5b5061026961110e565b34801561055057600080fd5b5061023f61055f366004612263565b6001600160a01b03166000908152600a602052604090205460ff1690565b34801561058957600080fd5b50610269610598366004612204565b61111d565b3480156105a957600080fd5b5061023f6105b836600461232c565b611208565b3480156105c957600080fd5b506102e36105d83660046123e4565b611233565b3480156105e957600080fd5b5061026961129a565b3480156105fe57600080fd5b50610305600081565b34801561061357600080fd5b506102e361062236600461242d565b6112a9565b34801561063357600080fd5b5061023f610642366004612263565b6112b4565b34801561065357600080fd5b506102e3610662366004612469565b6112e4565b34801561067357600080fd5b50610269610682366004612204565b6112fb565b34801561069357600080fd5b506102e36106a236600461232c565b611397565b3480156106b357600080fd5b506102e36106c2366004612204565b6113bc565b3480156106d357600080fd5b5061023f6106e23660046124e5565b611410565b3480156106f357600080fd5b5061030560008051602061294683398151915281565b60006107148261143e565b92915050565b6060600880546107299061250f565b80601f01602080910402602001604051908101604052809291908181526020018280546107559061250f565b80156107a25780601f10610777576101008083540402835291602001916107a2565b820191906000526020600020905b81548152906001019060200180831161078557829003601f168201915b5050505050905090565b6060600080546107299061250f565b60006107c682611463565b506000828152600460205260409020546001600160a01b0316610714565b6107ef82823361149c565b5050565b6000806107ff836110c6565b1161084d5760405162461bcd60e51b81526020600482015260196024820152785573657220646f6573206e6f7420686176652061206e616d6560381b60448201526064015b60405180910390fd5b6001600160a01b0382166000908152600b6020526040812080546108f891906108759061250f565b80601f01602080910402602001604051908101604052809291908181526020018280546108a19061250f565b80156108ee5780601f106108c3576101008083540402835291602001916108ee565b820191906000526020600020905b8154815290600101906020018083116108d157829003601f168201915b50505050506114a9565b50905061090481611690565b9392505050565b600061090483838080601f0160208091040260200160405190810160405280939291908181526020018383808284376000920191909152506116c192505050565b60008060008061099186868080601f0160208091040260200160405190810160405280939291908181526020018383808284376000920191909152506114a992505050565b91509150806109d45760405162461bcd60e51b815260206004820152600f60248201526e13985b59481a5cc81a5b9d985b1a59608a1b6044820152606401610844565b60006109df83611690565b6000818152600260205260409020549091506001600160a01b031615610a3a5760405162461bcd60e51b815260206004820152601060248201526f13985b59481a5cc81bd8d8dd5c1a595960821b6044820152606401610844565b90969095509350505050565b6001600160a01b038216610a7057604051633250574960e11b815260006004820152602401610844565b6000610a7d838333611743565b9050836001600160a01b0316816001600160a01b031614610acb576040516364283d7b60e01b81526001600160a01b0380861660048301526024820184905282166044820152606401610844565b50505050565b600082815260066020526040902060010154610aec816117c0565b610acb83836117cd565b600080516020612946833981519152610b0e816117c0565b6008610b1a8382612597565b5081604051610b299190612657565b604051908190038120907fea0538491ac80faeb16aa130764de632747573749c3a6e34f55c28bee697814990600090a25050565b6001600160a01b0381163314610b865760405163334bd91960e11b815260040160405180910390fd5b610b908282611861565b505050565b6000610ba0816117c0565b4780610bee5760405162461bcd60e51b815260206004820152601760248201527f5a65726f20616d6f756e7420746f2077697468647261770000000000000000006044820152606401610844565b604051600090339083908381818185875af1925050503d8060008114610c30576040519150601f19603f3d011682016040523d82523d6000602084013e610c35565b606091505b5050905080610c7d5760405162461bcd60e51b81526020600482015260146024820152732330b4b632b2103a379039b2b7321022ba3432b960611b6044820152606401610844565b6040518281527f11e9d9f7a772129e26cb0560945658c96b41c42ac6712d233e20c894bfcd00fd9060200160405180910390a1505050565b610b90838383604051806020016040528060008152506112e4565b600080610d1284848080601f0160208091040260200160405190810160405280939291908181526020018383808284376000920191909152506116c192505050565b6000818152600260205260409020549091506001600160a01b0316610d3b576000915050610714565b610d4481610fbd565b949350505050565b60006009543403610df057336000818152600a60205260409020805460ff19166001179055610d7a906112b4565b15610d9957610d88336107f3565b90508115610d9e57610d99816118ce565b610efc565b336000818152600b6020526040908190209051600192849290917f489d65f3c73c43c0553ae2d3185608b8bf9e5110569a99128fd18cec88b9da8d91610de391612673565b60405180910390a4610714565b610df9336112b4565b15610e395760405162461bcd60e51b815260206004820152601060248201526f416c726561647920686173206e616d6560801b6044820152606401610844565b3415610e7a5760405162461bcd60e51b815260206004820152601060248201526f15dc9bdb99c811551208185b5bdd5b9d60821b6044820152606401610844565b6006610ebb84848080601f01602080910402602001604051908101604052809392919081815260200183838082843760009201919091525061190992505050565b11610efc5760405162461bcd60e51b81526020600482015260116024820152700aee4dedcce40dcc2daca40d8cadccee8d607b1b6044820152606401610844565b610f3b83838080601f0160208091040260200160405190810160405280939291908181526020018383808284376000920191909152506116c192505050565b9050610f473382611a0c565b336000908152600b60205260409020610f618385836126fe565b50336000818152600a60205260409081902054905160ff90911615159183917f489d65f3c73c43c0553ae2d3185608b8bf9e5110569a99128fd18cec88b9da8d90610faf90889088906127be565b60405180910390a492915050565b600061071482611463565b60606000610fd5836110c6565b1161101e5760405162461bcd60e51b81526020600482015260196024820152785573657220646f6573206e6f7420686176652061206e616d6560381b6044820152606401610844565b6001600160a01b0382166000908152600b6020526040902080546110419061250f565b80601f016020809104026020016040519081016040528092919081815260200182805461106d9061250f565b80156110ba5780601f1061108f576101008083540402835291602001916110ba565b820191906000526020600020905b81548152906001019060200180831161109d57829003601f168201915b50505050509050919050565b60006001600160a01b0382166110f2576040516322718ad960e21b815260006004820152602401610844565b506001600160a01b031660009081526003602052604090205490565b6060600780546107299061250f565b6000818152600260205260409020546060906001600160a01b031661115057505060408051602081019091526000815290565b600061115b83610fbd565b6001600160a01b0381166000908152600b602052604090208054919250906111829061250f565b80601f01602080910402602001604051908101604052809291908181526020018280546111ae9061250f565b80156111fb5780601f106111d0576101008083540402835291602001916111fb565b820191906000526020600020905b8154815290600101906020018083116111de57829003601f168201915b5050505050915050919050565b60009182526006602090815260408084206001600160a01b0393909316845291905290205460ff1690565b60008051602061294683398151915261124b816117c0565b60076112578382612597565b50816040516112669190612657565b604051908190038120907fe3afa94108b5f5e82e5f6e539d161ff4b5402a85f696c67b9768ec3ae54ce36690600090a25050565b6060600180546107299061250f565b6107ef338383611a26565b6001600160a01b0381166000908152600b6020526040812080548291906112da9061250f565b9050119050919050565b6112ef848484610a46565b610acb84848484611ac5565b6000818152600260205260409020546060906001600160a01b03166113625760405162461bcd60e51b815260206004820152601f60248201527f55524920717565727920666f72206e6f6e6578697374656e7420746f6b656e006044820152606401610844565b600761136d83611bee565b600860405160200161138193929190612860565b6040516020818303038152906040529050919050565b6000828152600660205260409020600101546113b2816117c0565b610acb8383611861565b6000805160206129468339815191526113d4816117c0565b60098290556040518281527f71d774f51a8ca4c9c8d8d4b9c3a71594870eec40b74b08d2064d86f7467aca709060200160405180910390a15050565b6001600160a01b03918216600090815260056020908152604080832093909416825291909152205460ff1690565b60006001600160e01b03198216637965db0b60e01b1480610714575061071482611c81565b6000818152600260205260408120546001600160a01b03168061071457604051637e27328960e01b815260048101849052602401610844565b610b908383836001611cd1565b60606000806114b784611909565b9050600281116114fd5760405162461bcd60e51b815260206004820152601160248201527013985b59481a5cc81d1bdbc81cda1bdc9d607a1b6044820152606401610844565b601581106115405760405162461bcd60e51b815260206004820152601060248201526f4e616d6520697320746f6f206c6f6e6760801b6044820152606401610844565b8351849060009067ffffffffffffffff81111561155f5761155f612358565b6040519080825280601f01601f191660200182016040528015611589576020820181803683370190505b50905060005b82518110156116835760008382815181106115ac576115ac612893565b016020015160f81c9050604181108015906115cb5750605a8160ff1611155b15611605578060200160f81b8383815181106115e9576115e9612893565b60200101906001600160f81b031916908160001a90535061167a565b61160e81611dd7565b6116335760006040518060200160405280600081525090965096505050505050915091565b83828151811061164557611645612893565b602001015160f81c60f81b83838151811061166257611662612893565b60200101906001600160f81b031916908160001a9053505b5060010161158f565b5095600195509350505050565b6000816040516020016116a39190612657565b60408051601f19818403018152919052805160209091012092915050565b60008060006116cf846114a9565b91509150806117125760405162461bcd60e51b815260206004820152600f60248201526e13985b59481a5cc81a5b9d985b1a59608a1b6044820152606401610844565b816040516020016117239190612657565b60408051601f198184030181529190528051602090910120949350505050565b600080611751858585611e21565b90506001600160a01b0381161580159061177357506001600160a01b03851615155b15610d445760405162461bcd60e51b815260206004820152601860248201527f4f6e6c7920666f7220796f75206f72206f6363757069656400000000000000006044820152606401610844565b6117ca8133611f1a565b50565b60006117d98383611208565b6118595760008381526006602090815260408083206001600160a01b03861684529091529020805460ff191660011790556118113390565b6001600160a01b0316826001600160a01b0316847f2f8788117e7eff1d82e926ec794901d17c78024a50270940304540a733656f0d60405160405180910390a4506001610714565b506000610714565b600061186d8383611208565b156118595760008381526006602090815260408083206001600160a01b0386168085529252808320805460ff1916905551339286917ff6391f5c32d9c69d2a47ea670b442974b53935d1edc7fd64eb21e047a839171b9190a4506001610714565b60006118dd6000836000611743565b90506001600160a01b0381166107ef57604051637e27328960e01b815260048101839052602401610844565b8051600090819081905b80821015611a0357600085838151811061192f5761192f612893565b01602001516001600160f81b0319169050600160ff1b81101561195e576119576001846128bf565b92506119f0565b600760fd1b6001600160f81b03198216101561197f576119576002846128bf565b600f60fc1b6001600160f81b0319821610156119a0576119576003846128bf565b601f60fb1b6001600160f81b0319821610156119c1576119576004846128bf565b603f60fa1b6001600160f81b0319821610156119e2576119576005846128bf565b6119ed6006846128bf565b92505b50826119fb816128d2565b935050611913565b50909392505050565b6107ef828260405180602001604052806000815250611f53565b6001600160a01b038216611a5857604051630b61174360e31b81526001600160a01b0383166004820152602401610844565b6001600160a01b03838116600081815260056020908152604080832094871680845294825291829020805460ff191686151590811790915591519182527f17307eab39ab6107e8899845ad3d59bd9653f200f220920489ca2b5937696c31910160405180910390a3505050565b6001600160a01b0383163b15610acb57604051630a85bd0160e11b81526001600160a01b0384169063150b7a0290611b079033908890879087906004016128eb565b6020604051808303816000875af1925050508015611b42575060408051601f3d908101601f19168201909252611b3f91810190612928565b60015b611bab573d808015611b70576040519150601f19603f3d011682016040523d82523d6000602084013e611b75565b606091505b508051600003611ba357604051633250574960e11b81526001600160a01b0385166004820152602401610844565b805181602001fd5b6001600160e01b03198116630a85bd0160e11b14611be757604051633250574960e11b81526001600160a01b0385166004820152602401610844565b5050505050565b60606000611bfb83611f6a565b600101905060008167ffffffffffffffff811115611c1b57611c1b612358565b6040519080825280601f01601f191660200182016040528015611c45576020820181803683370190505b5090508181016020015b600019016f181899199a1a9b1b9c1cb0b131b232b360811b600a86061a8153600a8504945084611c4f57509392505050565b60006001600160e01b031982166380ac58cd60e01b1480611cb257506001600160e01b03198216635b5e139f60e01b145b8061071457506301ffc9a760e01b6001600160e01b0319831614610714565b8080611ce557506001600160a01b03821615155b15611da7576000611cf584611463565b90506001600160a01b03831615801590611d215750826001600160a01b0316816001600160a01b031614155b8015611d345750611d328184611410565b155b15611d5d5760405163a9fbf51f60e01b81526001600160a01b0384166004820152602401610844565b8115611da55783856001600160a01b0316826001600160a01b03167f8c5be1e5ebec7d5bd14f71427d1e84f3dd0314c0f7b2291e5b200ac8c7c3b92560405160405180910390a45b505b5050600090815260046020526040902080546001600160a01b0319166001600160a01b0392909216919091179055565b6000605f8260ff1610158015611df15750607a8260ff1611155b80611e0f575060218260ff1610158015611e0f575060408260ff1611155b801561071457505060ff166020141590565b6000828152600260205260408120546001600160a01b0390811690831615611e4e57611e4e818486612042565b6001600160a01b03811615611e8c57611e6b600085600080611cd1565b6001600160a01b038116600090815260036020526040902080546000190190555b6001600160a01b03851615611ebb576001600160a01b0385166000908152600360205260409020805460010190555b60008481526002602052604080822080546001600160a01b0319166001600160a01b0389811691821790925591518793918516917fddf252ad1be2c89b69c2b068fc378daa952ba7f163c4a11628f55a4df523b3ef91a4949350505050565b611f248282611208565b6107ef5760405163e2517d3f60e01b81526001600160a01b038216600482015260248101839052604401610844565b611f5d83836120a6565b610b906000848484611ac5565b60008072184f03e93ff9f4daa797ed6e38ed64bf6a1f0160401b8310611fa95772184f03e93ff9f4daa797ed6e38ed64bf6a1f0160401b830492506040015b6d04ee2d6d415b85acef81000000008310611fd5576d04ee2d6d415b85acef8100000000830492506020015b662386f26fc100008310611ff357662386f26fc10000830492506010015b6305f5e100831061200b576305f5e100830492506008015b612710831061201f57612710830492506004015b60648310612031576064830492506002015b600a83106107145760010192915050565b61204d83838361210b565b610b90576001600160a01b03831661207b57604051637e27328960e01b815260048101829052602401610844565b60405163177e802f60e01b81526001600160a01b038316600482015260248101829052604401610844565b6001600160a01b0382166120d057604051633250574960e11b815260006004820152602401610844565b60006120de83836000611743565b90506001600160a01b03811615610b90576040516339e3563760e11b815260006004820152602401610844565b60006001600160a01b03831615801590610d445750826001600160a01b0316846001600160a01b0316148061214557506121458484611410565b80610d445750506000908152600460205260409020546001600160a01b03908116911614919050565b6001600160e01b0319811681146117ca57600080fd5b60006020828403121561219657600080fd5b81356109048161216e565b60005b838110156121bc5781810151838201526020016121a4565b50506000910152565b600081518084526121dd8160208601602086016121a1565b601f01601f19169290920160200192915050565b60208152600061090460208301846121c5565b60006020828403121561221657600080fd5b5035919050565b80356001600160a01b038116811461223457600080fd5b919050565b6000806040838503121561224c57600080fd5b6122558361221d565b946020939093013593505050565b60006020828403121561227557600080fd5b6109048261221d565b6000806020838503121561229157600080fd5b823567ffffffffffffffff808211156122a957600080fd5b818501915085601f8301126122bd57600080fd5b8135818111156122cc57600080fd5b8660208285010111156122de57600080fd5b60209290920196919550909350505050565b60008060006060848603121561230557600080fd5b61230e8461221d565b925061231c6020850161221d565b9150604084013590509250925092565b6000806040838503121561233f57600080fd5b8235915061234f6020840161221d565b90509250929050565b634e487b7160e01b600052604160045260246000fd5b600067ffffffffffffffff8084111561238957612389612358565b604051601f8501601f19908116603f011681019082821181831017156123b1576123b1612358565b816040528093508581528686860111156123ca57600080fd5b858560208301376000602087830101525050509392505050565b6000602082840312156123f657600080fd5b813567ffffffffffffffff81111561240d57600080fd5b8201601f8101841361241e57600080fd5b610d448482356020840161236e565b6000806040838503121561244057600080fd5b6124498361221d565b91506020830135801515811461245e57600080fd5b809150509250929050565b6000806000806080858703121561247f57600080fd5b6124888561221d565b93506124966020860161221d565b925060408501359150606085013567ffffffffffffffff8111156124b957600080fd5b8501601f810187136124ca57600080fd5b6124d98782356020840161236e565b91505092959194509250565b600080604083850312156124f857600080fd5b6125018361221d565b915061234f6020840161221d565b600181811c9082168061252357607f821691505b60208210810361254357634e487b7160e01b600052602260045260246000fd5b50919050565b601f821115610b9057600081815260208120601f850160051c810160208610156125705750805b601f850160051c820191505b8181101561258f5782815560010161257c565b505050505050565b815167ffffffffffffffff8111156125b1576125b1612358565b6125c5816125bf845461250f565b84612549565b602080601f8311600181146125fa57600084156125e25750858301515b600019600386901b1c1916600185901b17855561258f565b600085815260208120601f198616915b828110156126295788860151825594840194600190910190840161260a565b50858210156126475787850151600019600388901b60f8161c191681555b5050505050600190811b01905550565b600082516126698184602087016121a1565b9190910192915050565b60006020808352600084546126878161250f565b808487015260406001808416600081146126a857600181146126c2576126f0565b60ff1985168984015283151560051b8901830195506126f0565b896000528660002060005b858110156126e85781548b82018601529083019088016126cd565b8a0184019650505b509398975050505050505050565b67ffffffffffffffff83111561271657612716612358565b61272a83612724835461250f565b83612549565b6000601f84116001811461275e57600085156127465750838201355b600019600387901b1c1916600186901b178355611be7565b600083815260209020601f19861690835b8281101561278f578685013582556020948501946001909201910161276f565b50868210156127ac5760001960f88860031b161c19848701351681555b505060018560011b0183555050505050565b60208152816020820152818360408301376000818301604090810191909152601f909201601f19160101919050565b600081546127fa8161250f565b60018281168015612812576001811461282757612856565b60ff1984168752821515830287019450612856565b8560005260208060002060005b8581101561284d5781548a820152908401908201612834565b50505082870194505b5050505092915050565b600061286c82866127ed565b845161287c8183602089016121a1565b612888818301866127ed565b979650505050505050565b634e487b7160e01b600052603260045260246000fd5b634e487b7160e01b600052601160045260246000fd5b80820180821115610714576107146128a9565b6000600182016128e4576128e46128a9565b5060010190565b6001600160a01b038581168252841660208201526040810183905260806060820181905260009061291e908301846121c5565b9695505050505050565b60006020828403121561293a57600080fd5b81516109048161216e56fe97667070c54ef182b0f5858b034beac1b6f3089aa2d3188bb1e8929f4fa9b929a26469706673582212204a5567d4f832779e4ed8020898232173f04fcdca8d2270a18d38a4aea44cbb3264736f6c6343000815003397667070c54ef182b0f5858b034beac1b6f3089aa2d3188bb1e8929f4fa9b92968747470733a2f2f6170692e7275627973636f72652e696f2f6e66742f70726f66696c652f",
  "devdoc": {
    "details": "Rubyscore_Profile is an SBT ERC721-based smart contract for claiming and managing user names. Users can claim unique names represented by ERC721 tokens. Names are normalized to lowercase and can consist of lowercase letters and selected special characters. The contract is NOT upgradeable and has role-based access control.",
    "errors": {
      "AccessControlBadConfirmation()": [
        {
          "details": "The caller of a function is not the expected one. NOTE: Don't confuse with {AccessControlUnauthorizedAccount}."
        }
      ],
      "AccessControlUnauthorizedAccount(address,bytes32)": [
        {
          "details": "The `account` is missing a role."
        }
      ],
      "ERC721IncorrectOwner(address,uint256,address)": [
        {
          "details": "Indicates an error related to the ownership over a particular token. Used in transfers.",
          "params": {
            "owner": "Address of the current owner of a token.",
            "sender": "Address whose tokens are being transferred.",
            "tokenId": "Identifier number of a token."
          }
        }
      ],
      "ERC721InsufficientApproval(address,uint256)": [
        {
          "details": "Indicates a failure with the `operator`s approval. Used in transfers.",
          "params": {
            "operator": "Address that may be allowed to operate on tokens without being their owner.",
            "tokenId": "Identifier number of a token."
          }
        }
      ],
      "ERC721InvalidApprover(address)": [
        {
          "details": "Indicates a failure with the `approver` of a token to be approved. Used in approvals.",
          "params": {
            "approver": "Address initiating an approval operation."
          }
        }
      ],
      "ERC721InvalidOperator(address)": [
        {
          "details": "Indicates a failure with the `operator` to be approved. Used in approvals.",
          "params": {
            "operator": "Address that may be allowed to operate on tokens without being their owner."
          }
        }
      ],
      "ERC721InvalidOwner(address)": [
        {
          "details": "Indicates that an address can't be an owner. For example, `address(0)` is a forbidden owner in EIP-20. Used in balance queries.",
          "params": {
            "owner": "Address of the current owner of a token."
          }
        }
      ],
      "ERC721InvalidReceiver(address)": [
        {
          "details": "Indicates a failure with the token `receiver`. Used in transfers.",
          "params": {
            "receiver": "Address to which tokens are being transferred."
          }
        }
      ],
      "ERC721InvalidSender(address)": [
        {
          "details": "Indicates a failure with the token `sender`. Used in transfers.",
          "params": {
            "sender": "Address whose tokens are being transferred."
          }
        }
      ],
      "ERC721NonexistentToken(uint256)": [
        {
          "details": "Indicates a `tokenId` whose `owner` is the zero address.",
          "params": {
            "tokenId": "Identifier number of a token."
          }
        }
      ]
    },
    "events": {
      "Approval(address,address,uint256)": {
        "details": "Emitted when `owner` enables `approved` to manage the `tokenId` token."
      },
      "ApprovalForAll(address,address,bool)": {
        "details": "Emitted when `owner` enables or disables (`approved`) `operator` to manage all of its assets."
      },
      "ExtensionUpdated(string)": {
        "params": {
          "newBaseExtension": "The new base extension used for token metadata files."
        }
      },
      "NameClaimed(address,uint256,string,bool)": {
        "params": {
          "account": "The address of the account claiming the name.",
          "name": "The name that was successfully claimed.",
          "premium": "The premium status of name that was successfully claimed.",
          "tokenId": "The unique token ID associated with the claimed name."
        }
      },
      "RoleAdminChanged(bytes32,bytes32,bytes32)": {
        "details": "Emitted when `newAdminRole` is set as ``role``'s admin role, replacing `previousAdminRole` `DEFAULT_ADMIN_ROLE` is the starting admin for all roles, despite {RoleAdminChanged} not being emitted signaling this."
      },
      "RoleGranted(bytes32,address,address)": {
        "details": "Emitted when `account` is granted `role`. `sender` is the account that originated the contract call, an admin role bearer except when using {AccessControl-_setupRole}."
      },
      "RoleRevoked(bytes32,address,address)": {
        "details": "Emitted when `account` is revoked `role`. `sender` is the account that originated the contract call:   - if using `revokeRole`, it is the admin role bearer   - if using `renounceRole`, it is the role bearer (i.e. `account`)"
      },
      "Transfer(address,address,uint256)": {
        "details": "Emitted when `tokenId` token is transferred from `from` to `to`."
      },
      "URIUpdated(string)": {
        "params": {
          "newBaseURI": "The new base URI used to construct token metadata URIs."
        }
      }
    },
    "kind": "dev",
    "methods": {
      "approve(address,uint256)": {
        "details": "See {IERC721-approve}."
      },
      "balanceOf(address)": {
        "details": "See {IERC721-balanceOf}."
      },
      "checkName(string)": {
        "details": "See {IRubyscore_Profile}"
      },
      "claimName(string)": {
        "details": "See {IRubyscore_Profile}"
      },
      "constructor": {
        "details": "Constructor to initialize the contract with admin and operator addresses.",
        "params": {
          "admin": "Address of the contract admin.",
          "operator": "Address of the contract operator."
        }
      },
      "getApproved(uint256)": {
        "details": "See {IERC721-getApproved}."
      },
      "getBaseExtension()": {
        "details": "See {IRubyscore_Profile}"
      },
      "getBaseURI()": {
        "details": "See {IRubyscore_Profile}"
      },
      "getIdByName(string)": {
        "details": "See {IRubyscore_Profile}"
      },
      "getIdByOwner(address)": {
        "details": "See {IRubyscore_Profile}"
      },
      "getNameById(uint256)": {
        "details": "See {IRubyscore_Profile}"
      },
      "getNameByOwner(address)": {
        "details": "See {IRubyscore_Profile}"
      },
      "getOwnerByName(string)": {
        "details": "See {IRubyscore_Profile}"
      },
      "getPremiumPrice()": {
        "details": "See {IRubyscore_Profile}"
      },
      "getPremiumStatus(address)": {
        "details": "See {IRubyscore_Profile}"
      },
      "getRoleAdmin(bytes32)": {
        "details": "Returns the admin role that controls `role`. See {grantRole} and {revokeRole}. To change a role's admin, use {_setRoleAdmin}."
      },
      "grantRole(bytes32,address)": {
        "details": "Grants `role` to `account`. If `account` had not been already granted `role`, emits a {RoleGranted} event. Requirements: - the caller must have ``role``'s admin role. May emit a {RoleGranted} event."
      },
      "hasName(address)": {
        "details": "See {IRubyscore_Profile}"
      },
      "hasRole(bytes32,address)": {
        "details": "Returns `true` if `account` has been granted `role`."
      },
      "isApprovedForAll(address,address)": {
        "details": "See {IERC721-isApprovedForAll}."
      },
      "name()": {
        "details": "See {IERC721Metadata-name}."
      },
      "ownerOf(uint256)": {
        "details": "See {IERC721-ownerOf}."
      },
      "renounceRole(bytes32,address)": {
        "details": "Revokes `role` from the calling account. Roles are often managed via {grantRole} and {revokeRole}: this function's purpose is to provide a mechanism for accounts to lose their privileges if they are compromised (such as when a trusted device is misplaced). If the calling account had been revoked `role`, emits a {RoleRevoked} event. Requirements: - the caller must be `callerConfirmation`. May emit a {RoleRevoked} event."
      },
      "revokeRole(bytes32,address)": {
        "details": "Revokes `role` from `account`. If `account` had been granted `role`, emits a {RoleRevoked} event. Requirements: - the caller must have ``role``'s admin role. May emit a {RoleRevoked} event."
      },
      "safeTransferFrom(address,address,uint256)": {
        "details": "See {IERC721-safeTransferFrom}."
      },
      "safeTransferFrom(address,address,uint256,bytes)": {
        "details": "See {IERC721-safeTransferFrom}."
      },
      "setApprovalForAll(address,bool)": {
        "details": "See {IERC721-setApprovalForAll}."
      },
      "supportsInterface(bytes4)": {
        "details": "See {IRubyscore_Profile}"
      },
      "symbol()": {
        "details": "See {IERC721Metadata-symbol}."
      },
      "tokenURI(uint256)": {
        "details": "See {IRubyscore_Profile}"
      },
      "transferFrom(address,address,uint256)": {
        "details": "See {IERC721-transferFrom}."
      },
      "updateBaseExtension(string)": {
        "details": "See {IRubyscore_Profile}"
      },
      "updateBaseURI(string)": {
        "details": "See {IRubyscore_Profile}"
      },
      "updatePremiumPrice(uint256)": {
        "details": "See {IRubyscore_Profile}"
      },
      "withdraw()": {
        "details": "See {IRubyscore_Profile}"
      }
    },
    "title": "Rubyscore_Profile",
    "version": 1
  },
  "userdoc": {
    "events": {
      "ExtensionUpdated(string)": {
        "notice": "Emitted when the base extension for token metadata is updated."
      },
      "NameClaimed(address,uint256,string,bool)": {
        "notice": "Emitted when a user successfully claims a unique name as an NFT."
      },
      "URIUpdated(string)": {
        "notice": "Emitted when the base URI for token metadata is updated."
      }
    },
    "kind": "user",
    "methods": {},
    "version": 1
  },
  "storageLayout": {
    "storage": [
      {
        "astId": 2213,
        "contract": "contracts/Rubyscore_Profile.sol:Rubyscore_Profile",
        "label": "_name",
        "offset": 0,
        "slot": "0",
        "type": "t_string_storage"
      },
      {
        "astId": 2215,
        "contract": "contracts/Rubyscore_Profile.sol:Rubyscore_Profile",
        "label": "_symbol",
        "offset": 0,
        "slot": "1",
        "type": "t_string_storage"
      },
      {
        "astId": 2219,
        "contract": "contracts/Rubyscore_Profile.sol:Rubyscore_Profile",
        "label": "_owners",
        "offset": 0,
        "slot": "2",
        "type": "t_mapping(t_uint256,t_address)"
      },
      {
        "astId": 2223,
        "contract": "contracts/Rubyscore_Profile.sol:Rubyscore_Profile",
        "label": "_balances",
        "offset": 0,
        "slot": "3",
        "type": "t_mapping(t_address,t_uint256)"
      },
      {
        "astId": 2227,
        "contract": "contracts/Rubyscore_Profile.sol:Rubyscore_Profile",
        "label": "_tokenApprovals",
        "offset": 0,
        "slot": "4",
        "type": "t_mapping(t_uint256,t_address)"
      },
      {
        "astId": 2233,
        "contract": "contracts/Rubyscore_Profile.sol:Rubyscore_Profile",
        "label": "_operatorApprovals",
        "offset": 0,
        "slot": "5",
        "type": "t_mapping(t_address,t_mapping(t_address,t_bool))"
      },
      {
        "astId": 26,
        "contract": "contracts/Rubyscore_Profile.sol:Rubyscore_Profile",
        "label": "_roles",
        "offset": 0,
        "slot": "6",
        "type": "t_mapping(t_bytes32,t_struct(RoleData)21_storage)"
      },
      {
        "astId": 6872,
        "contract": "contracts/Rubyscore_Profile.sol:Rubyscore_Profile",
        "label": "baseURI",
        "offset": 0,
        "slot": "7",
        "type": "t_string_storage"
      },
      {
        "astId": 6874,
        "contract": "contracts/Rubyscore_Profile.sol:Rubyscore_Profile",
        "label": "baseExtension",
        "offset": 0,
        "slot": "8",
        "type": "t_string_storage"
      },
      {
        "astId": 6876,
        "contract": "contracts/Rubyscore_Profile.sol:Rubyscore_Profile",
        "label": "premiumPrice",
        "offset": 0,
        "slot": "9",
        "type": "t_uint256"
      },
      {
        "astId": 6880,
        "contract": "contracts/Rubyscore_Profile.sol:Rubyscore_Profile",
        "label": "userPremiumStatus",
        "offset": 0,
        "slot": "10",
        "type": "t_mapping(t_address,t_bool)"
      },
      {
        "astId": 6884,
        "contract": "contracts/Rubyscore_Profile.sol:Rubyscore_Profile",
        "label": "_userToName",
        "offset": 0,
        "slot": "11",
        "type": "t_mapping(t_address,t_string_storage)"
      },
      {
        "astId": 6887,
        "contract": "contracts/Rubyscore_Profile.sol:Rubyscore_Profile",
        "label": "_tokenIdCounter",
        "offset": 0,
        "slot": "12",
        "type": "t_struct(Counter)10900_storage"
      }
    ],
    "types": {
      "t_address": {
        "encoding": "inplace",
        "label": "address",
        "numberOfBytes": "20"
      },
      "t_bool": {
        "encoding": "inplace",
        "label": "bool",
        "numberOfBytes": "1"
      },
      "t_bytes32": {
        "encoding": "inplace",
        "label": "bytes32",
        "numberOfBytes": "32"
      },
      "t_mapping(t_address,t_bool)": {
        "encoding": "mapping",
        "key": "t_address",
        "label": "mapping(address => bool)",
        "numberOfBytes": "32",
        "value": "t_bool"
      },
      "t_mapping(t_address,t_mapping(t_address,t_bool))": {
        "encoding": "mapping",
        "key": "t_address",
        "label": "mapping(address => mapping(address => bool))",
        "numberOfBytes": "32",
        "value": "t_mapping(t_address,t_bool)"
      },
      "t_mapping(t_address,t_string_storage)": {
        "encoding": "mapping",
        "key": "t_address",
        "label": "mapping(address => string)",
        "numberOfBytes": "32",
        "value": "t_string_storage"
      },
      "t_mapping(t_address,t_uint256)": {
        "encoding": "mapping",
        "key": "t_address",
        "label": "mapping(address => uint256)",
        "numberOfBytes": "32",
        "value": "t_uint256"
      },
      "t_mapping(t_bytes32,t_struct(RoleData)21_storage)": {
        "encoding": "mapping",
        "key": "t_bytes32",
        "label": "mapping(bytes32 => struct AccessControl.RoleData)",
        "numberOfBytes": "32",
        "value": "t_struct(RoleData)21_storage"
      },
      "t_mapping(t_uint256,t_address)": {
        "encoding": "mapping",
        "key": "t_uint256",
        "label": "mapping(uint256 => address)",
        "numberOfBytes": "32",
        "value": "t_address"
      },
      "t_string_storage": {
        "encoding": "bytes",
        "label": "string",
        "numberOfBytes": "32"
      },
      "t_struct(Counter)10900_storage": {
        "encoding": "inplace",
        "label": "struct Counters.Counter",
        "members": [
          {
            "astId": 10899,
            "contract": "contracts/Rubyscore_Profile.sol:Rubyscore_Profile",
            "label": "_value",
            "offset": 0,
            "slot": "0",
            "type": "t_uint256"
          }
        ],
        "numberOfBytes": "32"
      },
      "t_struct(RoleData)21_storage": {
        "encoding": "inplace",
        "label": "struct AccessControl.RoleData",
        "members": [
          {
            "astId": 18,
            "contract": "contracts/Rubyscore_Profile.sol:Rubyscore_Profile",
            "label": "hasRole",
            "offset": 0,
            "slot": "0",
            "type": "t_mapping(t_address,t_bool)"
          },
          {
            "astId": 20,
            "contract": "contracts/Rubyscore_Profile.sol:Rubyscore_Profile",
            "label": "adminRole",
            "offset": 0,
            "slot": "1",
            "type": "t_bytes32"
          }
        ],
        "numberOfBytes": "64"
      },
      "t_uint256": {
        "encoding": "inplace",
        "label": "uint256",
        "numberOfBytes": "32"
      }
    }
  }
}